{
  "contractName": "VaccinePassport",
  "abi": [
    {
      "anonymous": false,
      "inputs": [
        {
          "indexed": true,
          "internalType": "address",
          "name": "previousOwner",
          "type": "address"
        },
        {
          "indexed": true,
          "internalType": "address",
          "name": "newOwner",
          "type": "address"
        }
      ],
      "name": "OwnershipTransferred",
      "type": "event"
    },
    {
      "anonymous": false,
      "inputs": [
        {
          "indexed": true,
          "internalType": "uint256",
          "name": "_num",
          "type": "uint256"
        },
        {
          "indexed": false,
          "internalType": "string",
          "name": "_name",
          "type": "string"
        }
      ],
      "name": "TestEvent",
      "type": "event"
    },
    {
      "anonymous": false,
      "inputs": [
        {
          "indexed": true,
          "internalType": "address",
          "name": "_userAddress",
          "type": "address"
        },
        {
          "indexed": false,
          "internalType": "string",
          "name": "_userName",
          "type": "string"
        },
        {
          "indexed": false,
          "internalType": "string",
          "name": "_vaccineType",
          "type": "string"
        },
        {
          "indexed": false,
          "internalType": "string",
          "name": "_location",
          "type": "string"
        },
        {
          "indexed": false,
          "internalType": "uint256",
          "name": "_timestamp",
          "type": "uint256"
        }
      ],
      "name": "VaccineRecordEvent",
      "type": "event"
    },
    {
      "inputs": [
        {
          "internalType": "uint256",
          "name": "",
          "type": "uint256"
        },
        {
          "internalType": "address",
          "name": "",
          "type": "address"
        }
      ],
      "name": "isConfirmed",
      "outputs": [
        {
          "internalType": "bool",
          "name": "",
          "type": "bool"
        }
      ],
      "stateMutability": "view",
      "type": "function",
      "constant": true
    },
    {
      "inputs": [],
      "name": "owner",
      "outputs": [
        {
          "internalType": "address",
          "name": "",
          "type": "address"
        }
      ],
      "stateMutability": "view",
      "type": "function",
      "constant": true
    },
    {
      "inputs": [],
      "name": "renounceOwnership",
      "outputs": [],
      "stateMutability": "nonpayable",
      "type": "function"
    },
    {
      "inputs": [
        {
          "internalType": "uint256",
          "name": "",
          "type": "uint256"
        }
      ],
      "name": "testList",
      "outputs": [
        {
          "internalType": "uint256",
          "name": "num",
          "type": "uint256"
        },
        {
          "internalType": "string",
          "name": "name",
          "type": "string"
        }
      ],
      "stateMutability": "view",
      "type": "function",
      "constant": true
    },
    {
      "inputs": [
        {
          "internalType": "address",
          "name": "newOwner",
          "type": "address"
        }
      ],
      "name": "transferOwnership",
      "outputs": [],
      "stateMutability": "nonpayable",
      "type": "function"
    },
    {
      "inputs": [
        {
          "internalType": "uint256",
          "name": "",
          "type": "uint256"
        }
      ],
      "name": "vaccineRecordAccessList",
      "outputs": [
        {
          "internalType": "address",
          "name": "accessAddress",
          "type": "address"
        },
        {
          "internalType": "bool",
          "name": "executed",
          "type": "bool"
        },
        {
          "internalType": "uint256",
          "name": "numConfirmations",
          "type": "uint256"
        }
      ],
      "stateMutability": "view",
      "type": "function",
      "constant": true
    },
    {
      "inputs": [
        {
          "internalType": "string",
          "name": "_userName",
          "type": "string"
        },
        {
          "internalType": "string",
          "name": "_idNumber",
          "type": "string"
        },
        {
          "internalType": "string",
          "name": "_birthDate",
          "type": "string"
        }
      ],
      "name": "createUserProfile",
      "outputs": [],
      "stateMutability": "nonpayable",
      "type": "function"
    },
    {
      "inputs": [],
      "name": "isExistingUser",
      "outputs": [
        {
          "internalType": "bool",
          "name": "",
          "type": "bool"
        }
      ],
      "stateMutability": "view",
      "type": "function",
      "constant": true
    },
    {
      "inputs": [],
      "name": "getUserProfile",
      "outputs": [
        {
          "internalType": "string",
          "name": "",
          "type": "string"
        },
        {
          "internalType": "string",
          "name": "",
          "type": "string"
        },
        {
          "internalType": "string",
          "name": "",
          "type": "string"
        },
        {
          "internalType": "bool",
          "name": "",
          "type": "bool"
        },
        {
          "internalType": "uint256",
          "name": "",
          "type": "uint256"
        }
      ],
      "stateMutability": "view",
      "type": "function",
      "constant": true
    },
    {
      "inputs": [
        {
          "internalType": "address",
          "name": "_userAddress",
          "type": "address"
        },
        {
          "internalType": "string",
          "name": "_vaccineType",
          "type": "string"
        },
        {
          "internalType": "string",
          "name": "_location",
          "type": "string"
        }
      ],
      "name": "addVaccineRecord",
      "outputs": [],
      "stateMutability": "nonpayable",
      "type": "function"
    },
    {
      "inputs": [],
      "name": "getUserVaccineRecord",
      "outputs": [
        {
          "internalType": "string[]",
          "name": "",
          "type": "string[]"
        },
        {
          "internalType": "string[]",
          "name": "",
          "type": "string[]"
        },
        {
          "internalType": "uint256[]",
          "name": "",
          "type": "uint256[]"
        }
      ],
      "stateMutability": "view",
      "type": "function",
      "constant": true
    },
    {
      "inputs": [],
      "name": "joinTheEvent",
      "outputs": [
        {
          "internalType": "bool",
          "name": "",
          "type": "bool"
        }
      ],
      "stateMutability": "nonpayable",
      "type": "function"
    },
    {
      "inputs": [],
      "name": "createReadVaccineRecord",
      "outputs": [
        {
          "internalType": "uint256",
          "name": "_txIndex",
          "type": "uint256"
        }
      ],
      "stateMutability": "nonpayable",
      "type": "function"
    },
    {
      "inputs": [
        {
          "internalType": "uint256",
          "name": "_txIndex",
          "type": "uint256"
        }
      ],
      "name": "confirmReadVaccineRecord",
      "outputs": [],
      "stateMutability": "nonpayable",
      "type": "function"
    },
    {
      "inputs": [
        {
          "internalType": "uint256",
          "name": "_txIndex",
          "type": "uint256"
        }
      ],
      "name": "getConfirmNumber",
      "outputs": [
        {
          "internalType": "uint256",
          "name": "",
          "type": "uint256"
        }
      ],
      "stateMutability": "view",
      "type": "function",
      "constant": true
    },
    {
      "inputs": [
        {
          "internalType": "uint256",
          "name": "_txIndex",
          "type": "uint256"
        }
      ],
      "name": "executeReadVaccineRecord",
      "outputs": [
        {
          "internalType": "string",
          "name": "_userName",
          "type": "string"
        },
        {
          "internalType": "string",
          "name": "_vaccineType",
          "type": "string"
        },
        {
          "internalType": "string",
          "name": "_location",
          "type": "string"
        },
        {
          "internalType": "uint256",
          "name": "_timestamp",
          "type": "uint256"
        }
      ],
      "stateMutability": "nonpayable",
      "type": "function"
    },
    {
      "inputs": [
        {
          "internalType": "uint256",
          "name": "_txIndex",
          "type": "uint256"
        }
      ],
      "name": "getExecuteStatus",
      "outputs": [
        {
          "internalType": "bool",
          "name": "",
          "type": "bool"
        }
      ],
      "stateMutability": "view",
      "type": "function",
      "constant": true
    },
    {
      "inputs": [
        {
          "internalType": "uint256",
          "name": "_txIndex",
          "type": "uint256"
        }
      ],
      "name": "revokeReadVaccineRecord",
      "outputs": [],
      "stateMutability": "nonpayable",
      "type": "function"
    },
    {
      "inputs": [],
      "name": "getVaccineReadRecordLength",
      "outputs": [
        {
          "internalType": "uint256",
          "name": "",
          "type": "uint256"
        }
      ],
      "stateMutability": "view",
      "type": "function",
      "constant": true
    },
    {
      "inputs": [],
      "name": "greeting",
      "outputs": [
        {
          "internalType": "string",
          "name": "",
          "type": "string"
        }
      ],
      "stateMutability": "pure",
      "type": "function",
      "constant": true
    },
    {
      "inputs": [
        {
          "internalType": "uint256",
          "name": "num",
          "type": "uint256"
        },
        {
          "internalType": "string",
          "name": "name",
          "type": "string"
        }
      ],
      "name": "addTest",
      "outputs": [],
      "stateMutability": "nonpayable",
      "type": "function"
    },
    {
      "inputs": [
        {
          "internalType": "uint256",
          "name": "_txIndex",
          "type": "uint256"
        },
        {
          "internalType": "address",
          "name": "_userAddress",
          "type": "address"
        }
      ],
      "name": "getVaccineRecord",
      "outputs": [
        {
          "internalType": "string",
          "name": "_userName",
          "type": "string"
        },
        {
          "internalType": "string",
          "name": "_vaccineType",
          "type": "string"
        },
        {
          "internalType": "string",
          "name": "_location",
          "type": "string"
        },
        {
          "internalType": "uint256",
          "name": "_timestamp",
          "type": "uint256"
        }
      ],
      "stateMutability": "view",
      "type": "function",
      "constant": true
    }
  ],
  "bytecode": "0x60806040523480156200001157600080fd5b5062000032620000266200003860201b60201c565b6200004060201b60201c565b62000104565b600033905090565b60008060009054906101000a900473ffffffffffffffffffffffffffffffffffffffff169050816000806101000a81548173ffffffffffffffffffffffffffffffffffffffff021916908373ffffffffffffffffffffffffffffffffffffffff1602179055508173ffffffffffffffffffffffffffffffffffffffff168173ffffffffffffffffffffffffffffffffffffffff167f8be0079c531659141344cd1fd0a4f28419497f9722a3daafe3b4186f6b6457e060405160405180910390a35050565b61340680620001146000396000f3fe608060405234801561001057600080fd5b50600436106101425760003560e01c80638da5cb5b116100b8578063edf9dbad1161007c578063edf9dbad1461039a578063ef690cc0146103b6578063f2fde38b146103d4578063f44a9a21146103f0578063f91a5fdb1461040e578063feb81fbe1461042c57610142565b80638da5cb5b146102f1578063916de31c1461030f578063985bcfa71461032d578063b137333114610349578063ccace9531461036757610142565b80634e36fffe1161010a5780634e36fffe146102115780635005ed161461024257806361b0e724146102625780636f61c74414610295578063715018a6146102b757806380f59a65146102c157610142565b80631666249c146101475780631747047c1461016357806319953df8146101935780632ab800f2146101c35780633a2f4d85146101f5575b600080fd5b610161600480360381019061015c91906126d6565b610448565b005b61017d60048036038101906101789190612732565b6104ed565b60405161018a919061276e565b60405180910390f35b6101ad60048036038101906101a89190612732565b61051c565b6040516101ba91906127a4565b60405180910390f35b6101dd60048036038101906101d89190612732565b610558565b6040516101ec93929190612800565b60405180910390f35b61020f600480360381019061020a9190612732565b6105bf565b005b61022b60048036038101906102269190612732565b6108be565b6040516102399291906128bf565b60405180910390f35b61024a61097a565b60405161025993929190612ab9565b60405180910390f35b61027c60048036038101906102779190612732565b610caa565b60405161028c9493929190612b05565b60405180910390f35b61029d6111f1565b6040516102ae959493929190612b5f565b60405180910390f35b6102bf611507565b005b6102db60048036038101906102d69190612bf3565b61158f565b6040516102e891906127a4565b60405180910390f35b6102f96115be565b6040516103069190612c33565b60405180910390f35b6103176115e7565b60405161032491906127a4565b60405180910390f35b61034760048036038101906103429190612c4e565b611672565b005b61035161181a565b60405161035e919061276e565b60405180910390f35b610381600480360381019061037c9190612bf3565b611827565b6040516103919493929190612b05565b60405180910390f35b6103b460048036038101906103af9190612732565b611b1f565b005b6103be611dfe565b6040516103cb9190612cd9565b60405180910390f35b6103ee60048036038101906103e99190612cfb565b611e3b565b005b6103f8611f33565b604051610405919061276e565b60405180910390f35b61041661201f565b60405161042391906127a4565b60405180910390f35b61044660048036038101906104419190612d28565b612076565b005b600460405180604001604052808481526020018381525090806001815401808255809150506001900390600052602060002090600202016000909190919091506000820151816000015560208201518160010190805190602001906104ae9291906124a3565b505050817f1be7c4acf0f0eba0992603759c32d028600239a9034d28a643e234992e646aa4826040516104e19190612cd9565b60405180910390a25050565b60006002828154811061050357610502612dcf565b5b9060005260206000209060020201600101549050919050565b60006002828154811061053257610531612dcf565b5b906000526020600020906002020160000160149054906101000a900460ff169050919050565b6002818154811061056857600080fd5b90600052602060002090600202016000915090508060000160009054906101000a900473ffffffffffffffffffffffffffffffffffffffff16908060000160149054906101000a900460ff16908060010154905083565b806002805490508110610607576040517f08c379a00000000000000000000000000000000000000000000000000000000081526004016105fe90612e4a565b60405180910390fd5b816002818154811061061c5761061b612dcf565b5b906000526020600020906002020160000160149054906101000a900460ff161561067b576040517f08c379a000000000000000000000000000000000000000000000000000000000815260040161067290612eb6565b60405180910390fd5b826003600082815260200190815260200160002060003373ffffffffffffffffffffffffffffffffffffffff1673ffffffffffffffffffffffffffffffffffffffff16815260200190815260200160002060009054906101000a900460ff161561071a576040517f08c379a000000000000000000000000000000000000000000000000000000000815260040161071190612f22565b60405180910390fd5b836002818154811061072f5761072e612dcf565b5b906000526020600020906002020160000160009054906101000a900473ffffffffffffffffffffffffffffffffffffffff1673ffffffffffffffffffffffffffffffffffffffff163373ffffffffffffffffffffffffffffffffffffffff1614806107cc575061079d6115be565b73ffffffffffffffffffffffffffffffffffffffff163373ffffffffffffffffffffffffffffffffffffffff16145b61080b576040517f08c379a000000000000000000000000000000000000000000000000000000000815260040161080290612f8e565b60405180910390fd5b60006002868154811061082157610820612dcf565b5b9060005260206000209060020201905060016003600088815260200190815260200160002060003373ffffffffffffffffffffffffffffffffffffffff1673ffffffffffffffffffffffffffffffffffffffff16815260200190815260200160002060006101000a81548160ff02191690831515021790555060018160010160008282546108af9190612fdd565b92505081905550505050505050565b600481815481106108ce57600080fd5b90600052602060002090600202016000915090508060000154908060010180546108f790613062565b80601f016020809104026020016040519081016040528092919081815260200182805461092390613062565b80156109705780601f1061094557610100808354040283529160200191610970565b820191906000526020600020905b81548152906001019060200180831161095357829003601f168201915b5050505050905082565b60608060606000600160003373ffffffffffffffffffffffffffffffffffffffff1673ffffffffffffffffffffffffffffffffffffffff16815260200190815260200160002090506000816004015467ffffffffffffffff8111156109e2576109e16125ab565b5b604051908082528060200260200182016040528015610a1557816020015b6060815260200190600190039081610a005790505b5090506000826004015467ffffffffffffffff811115610a3857610a376125ab565b5b604051908082528060200260200182016040528015610a6b57816020015b6060815260200190600190039081610a565790505b5090506000836004015467ffffffffffffffff811115610a8e57610a8d6125ab565b5b604051908082528060200260200182016040528015610abc5781602001602082028036833780820191505090505b50905060005b8460040154811015610c97578460050160008281526020019081526020016000206000018054610af190613062565b80601f0160208091040260200160405190810160405280929190818152602001828054610b1d90613062565b8015610b6a5780601f10610b3f57610100808354040283529160200191610b6a565b820191906000526020600020905b815481529060010190602001808311610b4d57829003601f168201915b5050505050848281518110610b8257610b81612dcf565b5b60200260200101819052508460050160008281526020019081526020016000206001018054610bb090613062565b80601f0160208091040260200160405190810160405280929190818152602001828054610bdc90613062565b8015610c295780601f10610bfe57610100808354040283529160200191610c29565b820191906000526020600020905b815481529060010190602001808311610c0c57829003601f168201915b5050505050838281518110610c4157610c40612dcf565b5b602002602001018190525084600501600082815260200190815260200160002060020154828281518110610c7857610c77612dcf565b5b6020026020010181815250508080610c8f90613094565b915050610ac2565b5082828296509650965050505050909192565b60608060606000846002805490508110610cf9576040517f08c379a0000000000000000000000000000000000000000000000000000000008152600401610cf090612e4a565b60405180910390fd5b8560028181548110610d0e57610d0d612dcf565b5b906000526020600020906002020160000160149054906101000a900460ff1615610d6d576040517f08c379a0000000000000000000000000000000000000000000000000000000008152600401610d6490612eb6565b60405180910390fd5b600060028881548110610d8357610d82612dcf565b5b906000526020600020906002020190506002816001015414610dda576040517f08c379a0000000000000000000000000000000000000000000000000000000008152600401610dd190613129565b60405180910390fd5b60018160000160146101000a81548160ff021916908315150217905550600160008260000160009054906101000a900473ffffffffffffffffffffffffffffffffffffffff1673ffffffffffffffffffffffffffffffffffffffff1673ffffffffffffffffffffffffffffffffffffffff1681526020019081526020016000206000018054610e6890613062565b80601f0160208091040260200160405190810160405280929190818152602001828054610e9490613062565b8015610ee15780601f10610eb657610100808354040283529160200191610ee1565b820191906000526020600020905b815481529060010190602001808311610ec457829003601f168201915b50505050509650600160008260000160009054906101000a900473ffffffffffffffffffffffffffffffffffffffff1673ffffffffffffffffffffffffffffffffffffffff1673ffffffffffffffffffffffffffffffffffffffff16815260200190815260200160002060050160008981526020019081526020016000206000018054610f6d90613062565b80601f0160208091040260200160405190810160405280929190818152602001828054610f9990613062565b8015610fe65780601f10610fbb57610100808354040283529160200191610fe6565b820191906000526020600020905b815481529060010190602001808311610fc957829003601f168201915b50505050509550600160008260000160009054906101000a900473ffffffffffffffffffffffffffffffffffffffff1673ffffffffffffffffffffffffffffffffffffffff1673ffffffffffffffffffffffffffffffffffffffff1681526020019081526020016000206005016000898152602001908152602001600020600101805461107290613062565b80601f016020809104026020016040519081016040528092919081815260200182805461109e90613062565b80156110eb5780601f106110c0576101008083540402835291602001916110eb565b820191906000526020600020905b8154815290600101906020018083116110ce57829003601f168201915b50505050509450600160008260000160009054906101000a900473ffffffffffffffffffffffffffffffffffffffff1673ffffffffffffffffffffffffffffffffffffffff1673ffffffffffffffffffffffffffffffffffffffff16815260200190815260200160002060050160008981526020019081526020016000206002015493508060000160009054906101000a900473ffffffffffffffffffffffffffffffffffffffff1673ffffffffffffffffffffffffffffffffffffffff167fa0737c05a735e202a729a429d7ba4952ae83e4ade40f796e747e0e0ce7ee1bd4888888886040516111df9493929190612b05565b60405180910390a25050509193509193565b6060806060600080600160003373ffffffffffffffffffffffffffffffffffffffff1673ffffffffffffffffffffffffffffffffffffffff168152602001908152602001600020600001600160003373ffffffffffffffffffffffffffffffffffffffff1673ffffffffffffffffffffffffffffffffffffffff168152602001908152602001600020600101600160003373ffffffffffffffffffffffffffffffffffffffff1673ffffffffffffffffffffffffffffffffffffffff168152602001908152602001600020600201600160003373ffffffffffffffffffffffffffffffffffffffff1673ffffffffffffffffffffffffffffffffffffffff16815260200190815260200160002060030160009054906101000a900460ff16600160003373ffffffffffffffffffffffffffffffffffffffff1673ffffffffffffffffffffffffffffffffffffffff1681526020019081526020016000206004015484805461135e90613062565b80601f016020809104026020016040519081016040528092919081815260200182805461138a90613062565b80156113d75780601f106113ac576101008083540402835291602001916113d7565b820191906000526020600020905b8154815290600101906020018083116113ba57829003601f168201915b505050505094508380546113ea90613062565b80601f016020809104026020016040519081016040528092919081815260200182805461141690613062565b80156114635780601f1061143857610100808354040283529160200191611463565b820191906000526020600020905b81548152906001019060200180831161144657829003601f168201915b5050505050935082805461147690613062565b80601f01602080910402602001604051908101604052809291908181526020018280546114a290613062565b80156114ef5780601f106114c4576101008083540402835291602001916114ef565b820191906000526020600020905b8154815290600101906020018083116114d257829003601f168201915b50505050509250945094509450945094509091929394565b61150f6122b2565b73ffffffffffffffffffffffffffffffffffffffff1661152d6115be565b73ffffffffffffffffffffffffffffffffffffffff1614611583576040517f08c379a000000000000000000000000000000000000000000000000000000000815260040161157a90613195565b60405180910390fd5b61158d60006122ba565b565b60036020528160005260406000206020528060005260406000206000915091509054906101000a900460ff1681565b60008060009054906101000a900473ffffffffffffffffffffffffffffffffffffffff16905090565b600080600160003373ffffffffffffffffffffffffffffffffffffffff1673ffffffffffffffffffffffffffffffffffffffff16815260200190815260200160002090508060030160009054906101000a900460ff161561164c57600091505061166f565b60018160030160006101000a81548160ff02191690831515021790555060019150505b90565b61167a6122b2565b73ffffffffffffffffffffffffffffffffffffffff166116986115be565b73ffffffffffffffffffffffffffffffffffffffff16146116ee576040517f08c379a00000000000000000000000000000000000000000000000000000000081526004016116e590613195565b60405180910390fd5b6116f78261237e565b611736576040517f08c379a000000000000000000000000000000000000000000000000000000000815260040161172d90613201565b60405180910390fd5b6000600160008573ffffffffffffffffffffffffffffffffffffffff1673ffffffffffffffffffffffffffffffffffffffff16815260200190815260200160002090506000816004015490508382600501600083815260200190815260200160002060000190805190602001906117ae9291906124a3565b508282600501600083815260200190815260200160002060010190805190602001906117db9291906124a3565b50428260050160008381526020019081526020016000206002018190555081600401600081548092919061180e90613094565b91905055505050505050565b6000600280549050905090565b60608060606000600160008673ffffffffffffffffffffffffffffffffffffffff1673ffffffffffffffffffffffffffffffffffffffff168152602001908152602001600020600001805461187b90613062565b80601f01602080910402602001604051908101604052809291908181526020018280546118a790613062565b80156118f45780601f106118c9576101008083540402835291602001916118f4565b820191906000526020600020905b8154815290600101906020018083116118d757829003601f168201915b50505050509350600160008673ffffffffffffffffffffffffffffffffffffffff1673ffffffffffffffffffffffffffffffffffffffff1681526020019081526020016000206005016000878152602001908152602001600020600001805461195c90613062565b80601f016020809104026020016040519081016040528092919081815260200182805461198890613062565b80156119d55780601f106119aa576101008083540402835291602001916119d5565b820191906000526020600020905b8154815290600101906020018083116119b857829003601f168201915b50505050509250600160008673ffffffffffffffffffffffffffffffffffffffff1673ffffffffffffffffffffffffffffffffffffffff16815260200190815260200160002060050160008781526020019081526020016000206001018054611a3d90613062565b80601f0160208091040260200160405190810160405280929190818152602001828054611a6990613062565b8015611ab65780601f10611a8b57610100808354040283529160200191611ab6565b820191906000526020600020905b815481529060010190602001808311611a9957829003601f168201915b50505050509150600160008673ffffffffffffffffffffffffffffffffffffffff1673ffffffffffffffffffffffffffffffffffffffff168152602001908152602001600020600501600087815260200190815260200160002060020154905092959194509250565b806002805490508110611b67576040517f08c379a0000000000000000000000000000000000000000000000000000000008152600401611b5e90612e4a565b60405180910390fd5b8160028181548110611b7c57611b7b612dcf565b5b906000526020600020906002020160000160149054906101000a900460ff1615611bdb576040517f08c379a0000000000000000000000000000000000000000000000000000000008152600401611bd290612eb6565b60405180910390fd5b8260028181548110611bf057611bef612dcf565b5b906000526020600020906002020160000160009054906101000a900473ffffffffffffffffffffffffffffffffffffffff1673ffffffffffffffffffffffffffffffffffffffff163373ffffffffffffffffffffffffffffffffffffffff161480611c8d5750611c5e6115be565b73ffffffffffffffffffffffffffffffffffffffff163373ffffffffffffffffffffffffffffffffffffffff16145b611ccc576040517f08c379a0000000000000000000000000000000000000000000000000000000008152600401611cc390612f8e565b60405180910390fd5b600060028581548110611ce257611ce1612dcf565b5b90600052602060002090600202016040518060600160405290816000820160009054906101000a900473ffffffffffffffffffffffffffffffffffffffff1673ffffffffffffffffffffffffffffffffffffffff1673ffffffffffffffffffffffffffffffffffffffff1681526020016000820160149054906101000a900460ff16151515158152602001600182015481525050905060006003600087815260200190815260200160002060003373ffffffffffffffffffffffffffffffffffffffff1673ffffffffffffffffffffffffffffffffffffffff16815260200190815260200160002060006101000a81548160ff021916908315150217905550806040018051809190611df390613221565b815250505050505050565b60606040518060400160405280600d81526020017f48656c6c6f2c20776f726c642100000000000000000000000000000000000000815250905090565b611e436122b2565b73ffffffffffffffffffffffffffffffffffffffff16611e616115be565b73ffffffffffffffffffffffffffffffffffffffff1614611eb7576040517f08c379a0000000000000000000000000000000000000000000000000000000008152600401611eae90613195565b60405180910390fd5b600073ffffffffffffffffffffffffffffffffffffffff168173ffffffffffffffffffffffffffffffffffffffff161415611f27576040517f08c379a0000000000000000000000000000000000000000000000000000000008152600401611f1e906132bd565b60405180910390fd5b611f30816122ba565b50565b6000600260405180606001604052803373ffffffffffffffffffffffffffffffffffffffff1681526020016000151581526020016000815250908060018154018082558091505060019003906000526020600020906002020160009091909190915060008201518160000160006101000a81548173ffffffffffffffffffffffffffffffffffffffff021916908373ffffffffffffffffffffffffffffffffffffffff16021790555060208201518160000160146101000a81548160ff021916908315150217905550604082015181600101555050600160028054905061201a91906132dd565b905090565b6000600160003373ffffffffffffffffffffffffffffffffffffffff1673ffffffffffffffffffffffffffffffffffffffff16815260200190815260200160002060030160009054906101000a900460ff16905090565b600160003373ffffffffffffffffffffffffffffffffffffffff1673ffffffffffffffffffffffffffffffffffffffff16815260200190815260200160002060030160009054906101000a900460ff1615612106576040517f08c379a00000000000000000000000000000000000000000000000000000000081526004016120fd9061335d565b60405180910390fd5b82600160003373ffffffffffffffffffffffffffffffffffffffff1673ffffffffffffffffffffffffffffffffffffffff168152602001908152602001600020600001908051906020019061215c9291906124a3565b5081600160003373ffffffffffffffffffffffffffffffffffffffff1673ffffffffffffffffffffffffffffffffffffffff16815260200190815260200160002060010190805190602001906121b39291906124a3565b5080600160003373ffffffffffffffffffffffffffffffffffffffff1673ffffffffffffffffffffffffffffffffffffffff168152602001908152602001600020600201908051906020019061220a9291906124a3565b506000600160003373ffffffffffffffffffffffffffffffffffffffff1673ffffffffffffffffffffffffffffffffffffffff1681526020019081526020016000206004018190555060018060003373ffffffffffffffffffffffffffffffffffffffff1673ffffffffffffffffffffffffffffffffffffffff16815260200190815260200160002060030160006101000a81548160ff021916908315150217905550505050565b600033905090565b60008060009054906101000a900473ffffffffffffffffffffffffffffffffffffffff169050816000806101000a81548173ffffffffffffffffffffffffffffffffffffffff021916908373ffffffffffffffffffffffffffffffffffffffff1602179055508173ffffffffffffffffffffffffffffffffffffffff168173ffffffffffffffffffffffffffffffffffffffff167f8be0079c531659141344cd1fd0a4f28419497f9722a3daafe3b4186f6b6457e060405160405180910390a35050565b60008060405180604001604052806040518060400160405280600981526020017f436f726f6e61566163000000000000000000000000000000000000000000000081525081526020016040518060400160405280600981526020017f436f6d69726e6174790000000000000000000000000000000000000000000000815250815250905060005b60028110156124975781816002811061242157612420612dcf565b5b602002015160405160200161243691906133b9565b604051602081830303815290604052805190602001208460405160200161245d91906133b9565b6040516020818303038152906040528051906020012014156124845760019250505061249e565b808061248f90613094565b915050612405565b5060009150505b919050565b8280546124af90613062565b90600052602060002090601f0160209004810192826124d15760008555612518565b82601f106124ea57805160ff1916838001178555612518565b82800160010185558215612518579182015b828111156125175782518255916020019190600101906124fc565b5b5090506125259190612529565b5090565b5b8082111561254257600081600090555060010161252a565b5090565b6000604051905090565b600080fd5b600080fd5b6000819050919050565b61256d8161255a565b811461257857600080fd5b50565b60008135905061258a81612564565b92915050565b600080fd5b600080fd5b6000601f19601f8301169050919050565b7f4e487b7100000000000000000000000000000000000000000000000000000000600052604160045260246000fd5b6125e38261259a565b810181811067ffffffffffffffff82111715612602576126016125ab565b5b80604052505050565b6000612615612546565b905061262182826125da565b919050565b600067ffffffffffffffff821115612641576126406125ab565b5b61264a8261259a565b9050602081019050919050565b82818337600083830152505050565b600061267961267484612626565b61260b565b90508281526020810184848401111561269557612694612595565b5b6126a0848285612657565b509392505050565b600082601f8301126126bd576126bc612590565b5b81356126cd848260208601612666565b91505092915050565b600080604083850312156126ed576126ec612550565b5b60006126fb8582860161257b565b925050602083013567ffffffffffffffff81111561271c5761271b612555565b5b612728858286016126a8565b9150509250929050565b60006020828403121561274857612747612550565b5b60006127568482850161257b565b91505092915050565b6127688161255a565b82525050565b6000602082019050612783600083018461275f565b92915050565b60008115159050919050565b61279e81612789565b82525050565b60006020820190506127b96000830184612795565b92915050565b600073ffffffffffffffffffffffffffffffffffffffff82169050919050565b60006127ea826127bf565b9050919050565b6127fa816127df565b82525050565b600060608201905061281560008301866127f1565b6128226020830185612795565b61282f604083018461275f565b949350505050565b600081519050919050565b600082825260208201905092915050565b60005b83811015612871578082015181840152602081019050612856565b83811115612880576000848401525b50505050565b600061289182612837565b61289b8185612842565b93506128ab818560208601612853565b6128b48161259a565b840191505092915050565b60006040820190506128d4600083018561275f565b81810360208301526128e68184612886565b90509392505050565b600081519050919050565b600082825260208201905092915050565b6000819050602082019050919050565b600082825260208201905092915050565b600061293782612837565b612941818561291b565b9350612951818560208601612853565b61295a8161259a565b840191505092915050565b6000612971838361292c565b905092915050565b6000602082019050919050565b6000612991826128ef565b61299b81856128fa565b9350836020820285016129ad8561290b565b8060005b858110156129e957848403895281516129ca8582612965565b94506129d583612979565b925060208a019950506001810190506129b1565b50829750879550505050505092915050565b600081519050919050565b600082825260208201905092915050565b6000819050602082019050919050565b612a308161255a565b82525050565b6000612a428383612a27565b60208301905092915050565b6000602082019050919050565b6000612a66826129fb565b612a708185612a06565b9350612a7b83612a17565b8060005b83811015612aac578151612a938882612a36565b9750612a9e83612a4e565b925050600181019050612a7f565b5085935050505092915050565b60006060820190508181036000830152612ad38186612986565b90508181036020830152612ae78185612986565b90508181036040830152612afb8184612a5b565b9050949350505050565b60006080820190508181036000830152612b1f8187612886565b90508181036020830152612b338186612886565b90508181036040830152612b478185612886565b9050612b56606083018461275f565b95945050505050565b600060a0820190508181036000830152612b798188612886565b90508181036020830152612b8d8187612886565b90508181036040830152612ba18186612886565b9050612bb06060830185612795565b612bbd608083018461275f565b9695505050505050565b612bd0816127df565b8114612bdb57600080fd5b50565b600081359050612bed81612bc7565b92915050565b60008060408385031215612c0a57612c09612550565b5b6000612c188582860161257b565b9250506020612c2985828601612bde565b9150509250929050565b6000602082019050612c4860008301846127f1565b92915050565b600080600060608486031215612c6757612c66612550565b5b6000612c7586828701612bde565b935050602084013567ffffffffffffffff811115612c9657612c95612555565b5b612ca2868287016126a8565b925050604084013567ffffffffffffffff811115612cc357612cc2612555565b5b612ccf868287016126a8565b9150509250925092565b60006020820190508181036000830152612cf38184612886565b905092915050565b600060208284031215612d1157612d10612550565b5b6000612d1f84828501612bde565b91505092915050565b600080600060608486031215612d4157612d40612550565b5b600084013567ffffffffffffffff811115612d5f57612d5e612555565b5b612d6b868287016126a8565b935050602084013567ffffffffffffffff811115612d8c57612d8b612555565b5b612d98868287016126a8565b925050604084013567ffffffffffffffff811115612db957612db8612555565b5b612dc5868287016126a8565b9150509250925092565b7f4e487b7100000000000000000000000000000000000000000000000000000000600052603260045260246000fd5b7f747820646f6573206e6f74206578697374000000000000000000000000000000600082015250565b6000612e34601183612842565b9150612e3f82612dfe565b602082019050919050565b60006020820190508181036000830152612e6381612e27565b9050919050565b7f747820616c726561647920657865637574656400000000000000000000000000600082015250565b6000612ea0601383612842565b9150612eab82612e6a565b602082019050919050565b60006020820190508181036000830152612ecf81612e93565b9050919050565b7f747820616c726561647920636f6e6669726d6564000000000000000000000000600082015250565b6000612f0c601483612842565b9150612f1782612ed6565b602082019050919050565b60006020820190508181036000830152612f3b81612eff565b9050919050565b7f4e6f7420616363657373207065726d697373696f6e2e00000000000000000000600082015250565b6000612f78601683612842565b9150612f8382612f42565b602082019050919050565b60006020820190508181036000830152612fa781612f6b565b9050919050565b7f4e487b7100000000000000000000000000000000000000000000000000000000600052601160045260246000fd5b6000612fe88261255a565b9150612ff38361255a565b9250827fffffffffffffffffffffffffffffffffffffffffffffffffffffffffffffffff0382111561302857613027612fae565b5b828201905092915050565b7f4e487b7100000000000000000000000000000000000000000000000000000000600052602260045260246000fd5b6000600282049050600182168061307a57607f821691505b6020821081141561308e5761308d613033565b5b50919050565b600061309f8261255a565b91507fffffffffffffffffffffffffffffffffffffffffffffffffffffffffffffffff8214156130d2576130d1612fae565b5b600182019050919050565b7f63616e6e6f742065786563757465207478000000000000000000000000000000600082015250565b6000613113601183612842565b915061311e826130dd565b602082019050919050565b6000602082019050818103600083015261314281613106565b9050919050565b7f4f776e61626c653a2063616c6c6572206973206e6f7420746865206f776e6572600082015250565b600061317f602083612842565b915061318a82613149565b602082019050919050565b600060208201905081810360008301526131ae81613172565b9050919050565b7f496e76616c69642076616363696e6520747970652e0000000000000000000000600082015250565b60006131eb601583612842565b91506131f6826131b5565b602082019050919050565b6000602082019050818103600083015261321a816131de565b9050919050565b600061322c8261255a565b915060008214156132405761323f612fae565b5b600182039050919050565b7f4f776e61626c653a206e6577206f776e657220697320746865207a65726f206160008201527f6464726573730000000000000000000000000000000000000000000000000000602082015250565b60006132a7602683612842565b91506132b28261324b565b604082019050919050565b600060208201905081810360008301526132d68161329a565b9050919050565b60006132e88261255a565b91506132f38361255a565b92508282101561330657613305612fae565b5b828203905092915050565b7f5573657220616c7265616479206578697374732e000000000000000000000000600082015250565b6000613347601483612842565b915061335282613311565b602082019050919050565b600060208201905081810360008301526133768161333a565b9050919050565b600081905092915050565b600061339382612837565b61339d818561337d565b93506133ad818560208601612853565b80840191505092915050565b60006133c58284613388565b91508190509291505056fea2646970667358221220f91f2bbeabd0979753f6d7c41f5a3f3776fe231fec8edcdcb89934adf0fa91d464736f6c634300080a0033",
  "immutableReferences": {},
  "source": "// SPDX-License-Identifier: GPL-3.0\npragma solidity >=0.7.0 <0.9.0;\n\nimport \"../node_modules/@openzeppelin/contracts/access/Ownable.sol\";\n\ncontract VaccinePassport is Ownable {\n    struct Users {\n        string userName;\n        string idNumber;\n        string birthDate;\n        bool isActive;\n        uint256 numVaccinations;\n        mapping(uint256 => VaccineRecordDetail) vaccineRecordDetail;\n    }\n\n    struct VaccineRecordDetail {\n        string vaccineType;\n        string location;\n        uint256 timestamp;\n    }\n\n    struct VaccineRecordAccess {\n        address accessAddress;\n        bool executed;\n        uint256 numConfirmations;\n    }\n\n    mapping(address => Users) private users;\n\n    function createUserProfile(\n        string memory _userName,\n        string memory _idNumber,\n        string memory _birthDate\n    ) public {\n        require(!users[msg.sender].isActive, \"User already exists.\");\n        users[msg.sender].userName = _userName;\n        users[msg.sender].idNumber = _idNumber;\n        users[msg.sender].birthDate = _birthDate;\n        users[msg.sender].numVaccinations = 0;\n        users[msg.sender].isActive = true;\n    }\n\n    function isExistingUser() public view returns (bool) {\n        return users[msg.sender].isActive;\n    }\n\n    function getUserProfile()\n        public\n        view\n        returns (\n            string memory,\n            string memory,\n            string memory,\n            bool,\n            uint256\n        )\n    {\n        return (\n            users[msg.sender].userName,\n            users[msg.sender].idNumber,\n            users[msg.sender].birthDate,\n            users[msg.sender].isActive,\n            users[msg.sender].numVaccinations\n        );\n    }\n\n    function isValidVaccine(string memory _vaccineType)\n        private\n        pure\n        returns (bool)\n    {\n        string[2] memory vaccineList = [\"CoronaVac\", \"Comirnaty\"];\n        for (uint256 i; i < vaccineList.length; i++) {\n            if (\n                keccak256(abi.encodePacked(_vaccineType)) ==\n                keccak256(abi.encodePacked(vaccineList[i]))\n            ) {\n                return true;\n            }\n        }\n        return false;\n    }\n\n    function addVaccineRecord(\n        address _userAddress,\n        string memory _vaccineType,\n        string memory _location\n    ) public onlyOwner {\n        require(isValidVaccine(_vaccineType), \"Invalid vaccine type.\");\n        Users storage user = users[_userAddress];\n        uint256 numVaccinations = user.numVaccinations;\n        user.vaccineRecordDetail[numVaccinations].vaccineType = _vaccineType;\n        user.vaccineRecordDetail[numVaccinations].location = _location;\n        user.vaccineRecordDetail[numVaccinations].timestamp = block.timestamp;\n        user.numVaccinations++;\n    }\n\n    function getUserVaccineRecord()\n        public\n        view\n        returns (\n            string[] memory,\n            string[] memory,\n            uint256[] memory\n        )\n    {\n        Users storage user = users[msg.sender];\n        string[] memory mVaccineType = new string[](user.numVaccinations);\n        string[] memory mLocation = new string[](user.numVaccinations);\n        uint256[] memory mTimestamp = new uint256[](user.numVaccinations);\n        for (uint256 i; i < user.numVaccinations; i++) {\n            mVaccineType[i] = user.vaccineRecordDetail[i].vaccineType;\n            mLocation[i] = user.vaccineRecordDetail[i].location;\n            mTimestamp[i] = user.vaccineRecordDetail[i].timestamp;\n        }\n\n        return (mVaccineType, mLocation, mTimestamp);\n    }\n\n    function joinTheEvent() public returns (bool) {\n        Users storage user = users[msg.sender];\n        if (user.isActive) {\n            return false;\n        }\n        user.isActive = true;\n        return true;\n    }\n\n    VaccineRecordAccess[] public vaccineRecordAccessList;\n\n    mapping(uint256 => mapping(address => bool)) public isConfirmed;\n\n    modifier isAccessAddress(uint256 _txIndex) {\n        require(\n            msg.sender == vaccineRecordAccessList[_txIndex].accessAddress ||\n                msg.sender == Ownable.owner(),\n            \"Not access permission.\"\n        );\n        _;\n    }\n\n    modifier txExists(uint256 _txIndex) {\n        require(_txIndex < vaccineRecordAccessList.length, \"tx does not exist\");\n        _;\n    }\n\n    modifier notExecuted(uint256 _txIndex) {\n        require(\n            !vaccineRecordAccessList[_txIndex].executed,\n            \"tx already executed\"\n        );\n        _;\n    }\n\n    modifier notConfirmed(uint256 _txIndex) {\n        require(!isConfirmed[_txIndex][msg.sender], \"tx already confirmed\");\n        _;\n    }\n\n    // create request to read to record\n    function createReadVaccineRecord() public returns (uint256 _txIndex) {\n        vaccineRecordAccessList.push(\n            VaccineRecordAccess({\n                accessAddress: msg.sender,\n                executed: false,\n                numConfirmations: 0\n            })\n        );\n        return vaccineRecordAccessList.length - 1;\n    }\n\n    // confirm to read record\n    function confirmReadVaccineRecord(uint256 _txIndex)\n        public\n        txExists(_txIndex)\n        notExecuted(_txIndex)\n        notConfirmed(_txIndex)\n        isAccessAddress(_txIndex)\n    {\n        VaccineRecordAccess\n            storage vaccineRecordAccess = vaccineRecordAccessList[_txIndex];\n        isConfirmed[_txIndex][msg.sender] = true;\n        vaccineRecordAccess.numConfirmations += 1;\n    }\n\n    function getConfirmNumber(uint256 _txIndex) public view returns (uint256) {\n        return vaccineRecordAccessList[_txIndex].numConfirmations;\n    }\n\n    event VaccineRecordEvent(\n        address indexed _userAddress,\n        string _userName,\n        string _vaccineType,\n        string _location,\n        uint256 _timestamp\n    );\n\n    // read record\n    function executeReadVaccineRecord(uint256 _txIndex)\n        public\n        txExists(_txIndex)\n        notExecuted(_txIndex)\n        returns (\n            string memory _userName,\n            string memory _vaccineType,\n            string memory _location,\n            uint256 _timestamp\n        )\n    {\n        VaccineRecordAccess\n            storage vaccineRecordAccess = vaccineRecordAccessList[_txIndex];\n        require(vaccineRecordAccess.numConfirmations == 2, \"cannot execute tx\");\n        vaccineRecordAccess.executed = true;\n        _userName = users[vaccineRecordAccess.accessAddress].userName;\n        _vaccineType = users[vaccineRecordAccess.accessAddress]\n            .vaccineRecordDetail[_txIndex]\n            .vaccineType;\n        _location = users[vaccineRecordAccess.accessAddress]\n            .vaccineRecordDetail[_txIndex]\n            .location;\n        _timestamp = users[vaccineRecordAccess.accessAddress]\n            .vaccineRecordDetail[_txIndex]\n            .timestamp;\n        emit VaccineRecordEvent(\n            vaccineRecordAccess.accessAddress,\n            _userName,\n            _vaccineType,\n            _location,\n            _timestamp\n        );\n        return (_userName, _vaccineType, _location, _timestamp);\n        // VaccineRecordDetail memory vaccineRecordDetail = users[vaccineRecordAccess.accessAddress].vaccineRecordDetail[0];\n        // return vaccineRecordDetail;\n    }\n\n    function getExecuteStatus(uint256 _txIndex) public view returns (bool) {\n        return vaccineRecordAccessList[_txIndex].executed;\n    }\n\n    // revoke Confrim\n    function revokeReadVaccineRecord(uint256 _txIndex)\n        public\n        txExists(_txIndex)\n        notExecuted(_txIndex)\n        isAccessAddress(_txIndex)\n    {\n        VaccineRecordAccess\n            memory vaccineRecordAccess = vaccineRecordAccessList[_txIndex];\n        isConfirmed[_txIndex][msg.sender] = false;\n        vaccineRecordAccess.numConfirmations--;\n    }\n\n    // get vaccineReadRecord length\n    function getVaccineReadRecordLength() public view returns (uint256) {\n        return vaccineRecordAccessList.length;\n    }\n\n    //greeting\n    function greeting() public pure returns (string memory) {\n        return \"Hello, world!\";\n    }\n\n    struct test {\n        uint256 num;\n        string name;\n    }\n    test[] public testList;\n\n    event TestEvent(uint256 indexed _num, string _name);\n\n    function addTest(uint256 num, string memory name) public {\n        testList.push(test({num: num, name: name}));\n        emit TestEvent(num, name);\n    }\n\n    // get vaccineReadRecord length\n    function getVaccineRecord(uint256 _txIndex, address _userAddress)\n        public\n        view\n        returns (\n            string memory _userName,\n            string memory _vaccineType,\n            string memory _location,\n            uint256 _timestamp\n        )\n    {\n        _userName = users[_userAddress].userName;\n        _vaccineType = users[_userAddress]\n            .vaccineRecordDetail[_txIndex]\n            .vaccineType;\n        _location = users[_userAddress].vaccineRecordDetail[_txIndex].location;\n        _timestamp = users[_userAddress]\n            .vaccineRecordDetail[_txIndex]\n            .timestamp;\n        return (_userName, _vaccineType, _location, _timestamp);\n    }\n}\n",
  "sourcePath": "/Users/kuma/Desktop/Repo/BC/fyp/solidity/VaccinePassport/contracts/VaccinePassport.sol",
  "compiler": {
    "name": "solc",
    "version": "0.8.10+commit.fc410830.Emscripten.clang"
  },
  "schemaVersion": "3.4.7",
  "updatedAt": "2022-07-28T10:45:35.238Z",
  "networkType": "ethereum",
  "devdoc": {
    "kind": "dev",
    "methods": {
      "owner()": {
        "details": "Returns the address of the current owner."
      },
      "renounceOwnership()": {
        "details": "Leaves the contract without owner. It will not be possible to call `onlyOwner` functions anymore. Can only be called by the current owner. NOTE: Renouncing ownership will leave the contract without an owner, thereby removing any functionality that is only available to the owner."
      },
      "transferOwnership(address)": {
        "details": "Transfers ownership of the contract to a new account (`newOwner`). Can only be called by the current owner."
      }
    },
    "version": 1
  },
  "userdoc": {
    "kind": "user",
    "methods": {},
    "version": 1
  }
}