{
  "contractName": "VaccinePassport",
  "abi": [
    {
      "anonymous": false,
      "inputs": [
        {
          "indexed": true,
          "internalType": "address",
          "name": "previousOwner",
          "type": "address"
        },
        {
          "indexed": true,
          "internalType": "address",
          "name": "newOwner",
          "type": "address"
        }
      ],
      "name": "OwnershipTransferred",
      "type": "event"
    },
    {
      "anonymous": false,
      "inputs": [
        {
          "indexed": true,
          "internalType": "uint256",
          "name": "_num",
          "type": "uint256"
        },
        {
          "indexed": false,
          "internalType": "string",
          "name": "_name",
          "type": "string"
        }
      ],
      "name": "TestEvent",
      "type": "event"
    },
    {
      "anonymous": false,
      "inputs": [
        {
          "indexed": true,
          "internalType": "address",
          "name": "_userAddress",
          "type": "address"
        },
        {
          "indexed": false,
          "internalType": "string",
          "name": "_userName",
          "type": "string"
        },
        {
          "indexed": false,
          "internalType": "string",
          "name": "_vaccineType",
          "type": "string"
        },
        {
          "indexed": false,
          "internalType": "string",
          "name": "_location",
          "type": "string"
        },
        {
          "indexed": false,
          "internalType": "uint256",
          "name": "_timestamp",
          "type": "uint256"
        }
      ],
      "name": "VaccineRecordEvent",
      "type": "event"
    },
    {
      "inputs": [
        {
          "internalType": "uint256",
          "name": "",
          "type": "uint256"
        },
        {
          "internalType": "address",
          "name": "",
          "type": "address"
        }
      ],
      "name": "isConfirmed",
      "outputs": [
        {
          "internalType": "bool",
          "name": "",
          "type": "bool"
        }
      ],
      "stateMutability": "view",
      "type": "function",
      "constant": true
    },
    {
      "inputs": [],
      "name": "owner",
      "outputs": [
        {
          "internalType": "address",
          "name": "",
          "type": "address"
        }
      ],
      "stateMutability": "view",
      "type": "function",
      "constant": true
    },
    {
      "inputs": [],
      "name": "renounceOwnership",
      "outputs": [],
      "stateMutability": "nonpayable",
      "type": "function"
    },
    {
      "inputs": [
        {
          "internalType": "uint256",
          "name": "",
          "type": "uint256"
        }
      ],
      "name": "testList",
      "outputs": [
        {
          "internalType": "uint256",
          "name": "num",
          "type": "uint256"
        },
        {
          "internalType": "string",
          "name": "name",
          "type": "string"
        }
      ],
      "stateMutability": "view",
      "type": "function",
      "constant": true
    },
    {
      "inputs": [
        {
          "internalType": "address",
          "name": "newOwner",
          "type": "address"
        }
      ],
      "name": "transferOwnership",
      "outputs": [],
      "stateMutability": "nonpayable",
      "type": "function"
    },
    {
      "inputs": [
        {
          "internalType": "uint256",
          "name": "",
          "type": "uint256"
        }
      ],
      "name": "vaccineRecordAccessList",
      "outputs": [
        {
          "internalType": "address",
          "name": "accessAddress",
          "type": "address"
        },
        {
          "internalType": "bool",
          "name": "executed",
          "type": "bool"
        },
        {
          "internalType": "uint256",
          "name": "numConfirmations",
          "type": "uint256"
        }
      ],
      "stateMutability": "view",
      "type": "function",
      "constant": true
    },
    {
      "inputs": [
        {
          "internalType": "address",
          "name": "_userAddress",
          "type": "address"
        },
        {
          "internalType": "string",
          "name": "_userName",
          "type": "string"
        },
        {
          "internalType": "string",
          "name": "_vaccineType",
          "type": "string"
        },
        {
          "internalType": "string",
          "name": "_location",
          "type": "string"
        }
      ],
      "name": "addVaccineRecord",
      "outputs": [],
      "stateMutability": "nonpayable",
      "type": "function"
    },
    {
      "inputs": [],
      "name": "createReadVaccineRecord",
      "outputs": [
        {
          "internalType": "uint256",
          "name": "_txIndex",
          "type": "uint256"
        }
      ],
      "stateMutability": "nonpayable",
      "type": "function"
    },
    {
      "inputs": [
        {
          "internalType": "uint256",
          "name": "_txIndex",
          "type": "uint256"
        }
      ],
      "name": "confirmReadVaccineRecord",
      "outputs": [],
      "stateMutability": "nonpayable",
      "type": "function"
    },
    {
      "inputs": [
        {
          "internalType": "uint256",
          "name": "_txIndex",
          "type": "uint256"
        }
      ],
      "name": "getConfirmNumber",
      "outputs": [
        {
          "internalType": "uint256",
          "name": "",
          "type": "uint256"
        }
      ],
      "stateMutability": "view",
      "type": "function",
      "constant": true
    },
    {
      "inputs": [
        {
          "internalType": "uint256",
          "name": "_txIndex",
          "type": "uint256"
        }
      ],
      "name": "executeReadVaccineRecord",
      "outputs": [
        {
          "internalType": "string",
          "name": "_userName",
          "type": "string"
        },
        {
          "internalType": "string",
          "name": "_vaccineType",
          "type": "string"
        },
        {
          "internalType": "string",
          "name": "_location",
          "type": "string"
        },
        {
          "internalType": "uint256",
          "name": "_timestamp",
          "type": "uint256"
        }
      ],
      "stateMutability": "nonpayable",
      "type": "function"
    },
    {
      "inputs": [
        {
          "internalType": "uint256",
          "name": "_txIndex",
          "type": "uint256"
        }
      ],
      "name": "getExecuteStatus",
      "outputs": [
        {
          "internalType": "bool",
          "name": "",
          "type": "bool"
        }
      ],
      "stateMutability": "view",
      "type": "function",
      "constant": true
    },
    {
      "inputs": [
        {
          "internalType": "uint256",
          "name": "_txIndex",
          "type": "uint256"
        }
      ],
      "name": "revokeReadVaccineRecord",
      "outputs": [],
      "stateMutability": "nonpayable",
      "type": "function"
    },
    {
      "inputs": [],
      "name": "getVaccineReadRecordLength",
      "outputs": [
        {
          "internalType": "uint256",
          "name": "",
          "type": "uint256"
        }
      ],
      "stateMutability": "view",
      "type": "function",
      "constant": true
    },
    {
      "inputs": [],
      "name": "greeting",
      "outputs": [
        {
          "internalType": "string",
          "name": "",
          "type": "string"
        }
      ],
      "stateMutability": "pure",
      "type": "function",
      "constant": true
    },
    {
      "inputs": [
        {
          "internalType": "uint256",
          "name": "num",
          "type": "uint256"
        },
        {
          "internalType": "string",
          "name": "name",
          "type": "string"
        }
      ],
      "name": "addTest",
      "outputs": [],
      "stateMutability": "nonpayable",
      "type": "function"
    },
    {
      "inputs": [
        {
          "internalType": "uint256",
          "name": "_txIndex",
          "type": "uint256"
        },
        {
          "internalType": "address",
          "name": "_userAddress",
          "type": "address"
        }
      ],
      "name": "getVaccineRecord",
      "outputs": [
        {
          "internalType": "string",
          "name": "_userName",
          "type": "string"
        },
        {
          "internalType": "string",
          "name": "_vaccineType",
          "type": "string"
        },
        {
          "internalType": "string",
          "name": "_location",
          "type": "string"
        },
        {
          "internalType": "uint256",
          "name": "_timestamp",
          "type": "uint256"
        }
      ],
      "stateMutability": "view",
      "type": "function",
      "constant": true
    }
  ],
  "bytecode": "0x60806040523480156200001157600080fd5b5062000032620000266200003860201b60201c565b6200004060201b60201c565b62000104565b600033905090565b60008060009054906101000a900473ffffffffffffffffffffffffffffffffffffffff169050816000806101000a81548173ffffffffffffffffffffffffffffffffffffffff021916908373ffffffffffffffffffffffffffffffffffffffff1602179055508173ffffffffffffffffffffffffffffffffffffffff168173ffffffffffffffffffffffffffffffffffffffff167f8be0079c531659141344cd1fd0a4f28419497f9722a3daafe3b4186f6b6457e060405160405180910390a35050565b6126a980620001146000396000f3fe608060405234801561001057600080fd5b506004361061010b5760003560e01c806380f59a65116100a2578063ccace95311610071578063ccace953146102d0578063edf9dbad14610303578063ef690cc01461031f578063f2fde38b1461033d578063f44a9a21146103595761010b565b806380f59a65146102485780638da5cb5b146102785780639e15c7ba14610296578063b1373331146102b25761010b565b80633a2f4d85116100de5780633a2f4d85146101be5780634e36fffe146101da57806361b0e7241461020b578063715018a61461023e5761010b565b80631666249c146101105780631747047c1461012c57806319953df81461015c5780632ab800f21461018c575b600080fd5b61012a60048036038101906101259190611cda565b610377565b005b61014660048036038101906101419190611d36565b61041c565b6040516101539190611d72565b60405180910390f35b61017660048036038101906101719190611d36565b61044b565b6040516101839190611da8565b60405180910390f35b6101a660048036038101906101a19190611d36565b610487565b6040516101b593929190611e04565b60405180910390f35b6101d860048036038101906101d39190611d36565b6104ee565b005b6101f460048036038101906101ef9190611d36565b6107ed565b604051610202929190611ec3565b60405180910390f35b61022560048036038101906102209190611d36565b6108a9565b6040516102359493929190611ef3565b60405180910390f35b610246610e04565b005b610262600480360381019061025d9190611f79565b610e8c565b60405161026f9190611da8565b60405180910390f35b610280610ebb565b60405161028d9190611fb9565b60405180910390f35b6102b060048036038101906102ab9190611fd4565b610ee4565b005b6102ba61109d565b6040516102c79190611d72565b60405180910390f35b6102ea60048036038101906102e59190611f79565b6110aa565b6040516102fa9493929190611ef3565b60405180910390f35b61031d60048036038101906103189190611d36565b6113b6565b005b610327611695565b604051610334919061208f565b60405180910390f35b610357600480360381019061035291906120b1565b6116d2565b005b6103616117ca565b60405161036e9190611d72565b60405180910390f35b600460405180604001604052808481526020018381525090806001815401808255809150506001900390600052602060002090600202016000909190919091506000820151816000015560208201518160010190805190602001906103dd929190611aa7565b505050817f1be7c4acf0f0eba0992603759c32d028600239a9034d28a643e234992e646aa482604051610410919061208f565b60405180910390a25050565b600060028281548110610432576104316120de565b5b9060005260206000209060020201600101549050919050565b600060028281548110610461576104606120de565b5b906000526020600020906002020160000160149054906101000a900460ff169050919050565b6002818154811061049757600080fd5b90600052602060002090600202016000915090508060000160009054906101000a900473ffffffffffffffffffffffffffffffffffffffff16908060000160149054906101000a900460ff16908060010154905083565b806002805490508110610536576040517f08c379a000000000000000000000000000000000000000000000000000000000815260040161052d90612159565b60405180910390fd5b816002818154811061054b5761054a6120de565b5b906000526020600020906002020160000160149054906101000a900460ff16156105aa576040517f08c379a00000000000000000000000000000000000000000000000000000000081526004016105a1906121c5565b60405180910390fd5b826003600082815260200190815260200160002060003373ffffffffffffffffffffffffffffffffffffffff1673ffffffffffffffffffffffffffffffffffffffff16815260200190815260200160002060009054906101000a900460ff1615610649576040517f08c379a000000000000000000000000000000000000000000000000000000000815260040161064090612231565b60405180910390fd5b836002818154811061065e5761065d6120de565b5b906000526020600020906002020160000160009054906101000a900473ffffffffffffffffffffffffffffffffffffffff1673ffffffffffffffffffffffffffffffffffffffff163373ffffffffffffffffffffffffffffffffffffffff1614806106fb57506106cc610ebb565b73ffffffffffffffffffffffffffffffffffffffff163373ffffffffffffffffffffffffffffffffffffffff16145b61073a576040517f08c379a00000000000000000000000000000000000000000000000000000000081526004016107319061229d565b60405180910390fd5b6000600286815481106107505761074f6120de565b5b9060005260206000209060020201905060016003600088815260200190815260200160002060003373ffffffffffffffffffffffffffffffffffffffff1673ffffffffffffffffffffffffffffffffffffffff16815260200190815260200160002060006101000a81548160ff02191690831515021790555060018160010160008282546107de91906122ec565b92505081905550505050505050565b600481815481106107fd57600080fd5b906000526020600020906002020160009150905080600001549080600101805461082690612371565b80601f016020809104026020016040519081016040528092919081815260200182805461085290612371565b801561089f5780601f106108745761010080835404028352916020019161089f565b820191906000526020600020905b81548152906001019060200180831161088257829003601f168201915b5050505050905082565b606080606060008460028054905081106108f8576040517f08c379a00000000000000000000000000000000000000000000000000000000081526004016108ef90612159565b60405180910390fd5b856002818154811061090d5761090c6120de565b5b906000526020600020906002020160000160149054906101000a900460ff161561096c576040517f08c379a0000000000000000000000000000000000000000000000000000000008152600401610963906121c5565b60405180910390fd5b600060028881548110610982576109816120de565b5b9060005260206000209060020201905060028160010154146109d9576040517f08c379a00000000000000000000000000000000000000000000000000000000081526004016109d0906123ef565b60405180910390fd5b60018160000160146101000a81548160ff021916908315150217905550600160008260000160009054906101000a900473ffffffffffffffffffffffffffffffffffffffff1673ffffffffffffffffffffffffffffffffffffffff1673ffffffffffffffffffffffffffffffffffffffff16815260200190815260200160002060010160008981526020019081526020016000206000018054610a7b90612371565b80601f0160208091040260200160405190810160405280929190818152602001828054610aa790612371565b8015610af45780601f10610ac957610100808354040283529160200191610af4565b820191906000526020600020905b815481529060010190602001808311610ad757829003601f168201915b50505050509650600160008260000160009054906101000a900473ffffffffffffffffffffffffffffffffffffffff1673ffffffffffffffffffffffffffffffffffffffff1673ffffffffffffffffffffffffffffffffffffffff16815260200190815260200160002060010160008981526020019081526020016000206001018054610b8090612371565b80601f0160208091040260200160405190810160405280929190818152602001828054610bac90612371565b8015610bf95780601f10610bce57610100808354040283529160200191610bf9565b820191906000526020600020905b815481529060010190602001808311610bdc57829003601f168201915b50505050509550600160008260000160009054906101000a900473ffffffffffffffffffffffffffffffffffffffff1673ffffffffffffffffffffffffffffffffffffffff1673ffffffffffffffffffffffffffffffffffffffff16815260200190815260200160002060010160008981526020019081526020016000206002018054610c8590612371565b80601f0160208091040260200160405190810160405280929190818152602001828054610cb190612371565b8015610cfe5780601f10610cd357610100808354040283529160200191610cfe565b820191906000526020600020905b815481529060010190602001808311610ce157829003601f168201915b50505050509450600160008260000160009054906101000a900473ffffffffffffffffffffffffffffffffffffffff1673ffffffffffffffffffffffffffffffffffffffff1673ffffffffffffffffffffffffffffffffffffffff16815260200190815260200160002060010160008981526020019081526020016000206003015493508060000160009054906101000a900473ffffffffffffffffffffffffffffffffffffffff1673ffffffffffffffffffffffffffffffffffffffff167fa0737c05a735e202a729a429d7ba4952ae83e4ade40f796e747e0e0ce7ee1bd488888888604051610df29493929190611ef3565b60405180910390a25050509193509193565b610e0c6118b6565b73ffffffffffffffffffffffffffffffffffffffff16610e2a610ebb565b73ffffffffffffffffffffffffffffffffffffffff1614610e80576040517f08c379a0000000000000000000000000000000000000000000000000000000008152600401610e779061245b565b60405180910390fd5b610e8a60006118be565b565b60036020528160005260406000206020528060005260406000206000915091509054906101000a900460ff1681565b60008060009054906101000a900473ffffffffffffffffffffffffffffffffffffffff16905090565b610eec6118b6565b73ffffffffffffffffffffffffffffffffffffffff16610f0a610ebb565b73ffffffffffffffffffffffffffffffffffffffff1614610f60576040517f08c379a0000000000000000000000000000000000000000000000000000000008152600401610f579061245b565b60405180910390fd5b610f6982611982565b610fa8576040517f08c379a0000000000000000000000000000000000000000000000000000000008152600401610f9f906124c7565b60405180910390fd5b6000600160008673ffffffffffffffffffffffffffffffffffffffff1673ffffffffffffffffffffffffffffffffffffffff1681526020019081526020016000209050600081600001549050848260010160008381526020019081526020016000206000019080519060200190611020929190611aa7565b5083826001016000838152602001908152602001600020600101908051906020019061104d929190611aa7565b5082826001016000838152602001908152602001600020600201908051906020019061107a929190611aa7565b50816000016000815480929190611090906124e7565b9190505550505050505050565b6000600280549050905090565b60608060606000600160008673ffffffffffffffffffffffffffffffffffffffff1673ffffffffffffffffffffffffffffffffffffffff1681526020019081526020016000206001016000878152602001908152602001600020600001805461111290612371565b80601f016020809104026020016040519081016040528092919081815260200182805461113e90612371565b801561118b5780601f106111605761010080835404028352916020019161118b565b820191906000526020600020905b81548152906001019060200180831161116e57829003601f168201915b50505050509350600160008673ffffffffffffffffffffffffffffffffffffffff1673ffffffffffffffffffffffffffffffffffffffff168152602001908152602001600020600101600087815260200190815260200160002060010180546111f390612371565b80601f016020809104026020016040519081016040528092919081815260200182805461121f90612371565b801561126c5780601f106112415761010080835404028352916020019161126c565b820191906000526020600020905b81548152906001019060200180831161124f57829003601f168201915b50505050509250600160008673ffffffffffffffffffffffffffffffffffffffff1673ffffffffffffffffffffffffffffffffffffffff168152602001908152602001600020600101600087815260200190815260200160002060020180546112d490612371565b80601f016020809104026020016040519081016040528092919081815260200182805461130090612371565b801561134d5780601f106113225761010080835404028352916020019161134d565b820191906000526020600020905b81548152906001019060200180831161133057829003601f168201915b50505050509150600160008673ffffffffffffffffffffffffffffffffffffffff1673ffffffffffffffffffffffffffffffffffffffff168152602001908152602001600020600101600087815260200190815260200160002060030154905092959194509250565b8060028054905081106113fe576040517f08c379a00000000000000000000000000000000000000000000000000000000081526004016113f590612159565b60405180910390fd5b8160028181548110611413576114126120de565b5b906000526020600020906002020160000160149054906101000a900460ff1615611472576040517f08c379a0000000000000000000000000000000000000000000000000000000008152600401611469906121c5565b60405180910390fd5b8260028181548110611487576114866120de565b5b906000526020600020906002020160000160009054906101000a900473ffffffffffffffffffffffffffffffffffffffff1673ffffffffffffffffffffffffffffffffffffffff163373ffffffffffffffffffffffffffffffffffffffff16148061152457506114f5610ebb565b73ffffffffffffffffffffffffffffffffffffffff163373ffffffffffffffffffffffffffffffffffffffff16145b611563576040517f08c379a000000000000000000000000000000000000000000000000000000000815260040161155a9061229d565b60405180910390fd5b600060028581548110611579576115786120de565b5b90600052602060002090600202016040518060600160405290816000820160009054906101000a900473ffffffffffffffffffffffffffffffffffffffff1673ffffffffffffffffffffffffffffffffffffffff1673ffffffffffffffffffffffffffffffffffffffff1681526020016000820160149054906101000a900460ff16151515158152602001600182015481525050905060006003600087815260200190815260200160002060003373ffffffffffffffffffffffffffffffffffffffff1673ffffffffffffffffffffffffffffffffffffffff16815260200190815260200160002060006101000a81548160ff02191690831515021790555080604001805180919061168a90612530565b815250505050505050565b60606040518060400160405280600d81526020017f48656c6c6f2c20776f726c642100000000000000000000000000000000000000815250905090565b6116da6118b6565b73ffffffffffffffffffffffffffffffffffffffff166116f8610ebb565b73ffffffffffffffffffffffffffffffffffffffff161461174e576040517f08c379a00000000000000000000000000000000000000000000000000000000081526004016117459061245b565b60405180910390fd5b600073ffffffffffffffffffffffffffffffffffffffff168173ffffffffffffffffffffffffffffffffffffffff1614156117be576040517f08c379a00000000000000000000000000000000000000000000000000000000081526004016117b5906125cc565b60405180910390fd5b6117c7816118be565b50565b6000600260405180606001604052803373ffffffffffffffffffffffffffffffffffffffff1681526020016000151581526020016000815250908060018154018082558091505060019003906000526020600020906002020160009091909190915060008201518160000160006101000a81548173ffffffffffffffffffffffffffffffffffffffff021916908373ffffffffffffffffffffffffffffffffffffffff16021790555060208201518160000160146101000a81548160ff02191690831515021790555060408201518160010155505060016002805490506118b191906125ec565b905090565b600033905090565b60008060009054906101000a900473ffffffffffffffffffffffffffffffffffffffff169050816000806101000a81548173ffffffffffffffffffffffffffffffffffffffff021916908373ffffffffffffffffffffffffffffffffffffffff1602179055508173ffffffffffffffffffffffffffffffffffffffff168173ffffffffffffffffffffffffffffffffffffffff167f8be0079c531659141344cd1fd0a4f28419497f9722a3daafe3b4186f6b6457e060405160405180910390a35050565b60008060405180604001604052806040518060400160405280600381526020017f414141000000000000000000000000000000000000000000000000000000000081525081526020016040518060400160405280600381526020017f4242420000000000000000000000000000000000000000000000000000000000815250815250905060005b6002811015611a9b57818160028110611a2557611a246120de565b5b6020020151604051602001611a3a919061265c565b6040516020818303038152906040528051906020012084604051602001611a61919061265c565b604051602081830303815290604052805190602001201415611a8857600192505050611aa2565b8080611a93906124e7565b915050611a09565b5060009150505b919050565b828054611ab390612371565b90600052602060002090601f016020900481019282611ad55760008555611b1c565b82601f10611aee57805160ff1916838001178555611b1c565b82800160010185558215611b1c579182015b82811115611b1b578251825591602001919060010190611b00565b5b509050611b299190611b2d565b5090565b5b80821115611b46576000816000905550600101611b2e565b5090565b6000604051905090565b600080fd5b600080fd5b6000819050919050565b611b7181611b5e565b8114611b7c57600080fd5b50565b600081359050611b8e81611b68565b92915050565b600080fd5b600080fd5b6000601f19601f8301169050919050565b7f4e487b7100000000000000000000000000000000000000000000000000000000600052604160045260246000fd5b611be782611b9e565b810181811067ffffffffffffffff82111715611c0657611c05611baf565b5b80604052505050565b6000611c19611b4a565b9050611c258282611bde565b919050565b600067ffffffffffffffff821115611c4557611c44611baf565b5b611c4e82611b9e565b9050602081019050919050565b82818337600083830152505050565b6000611c7d611c7884611c2a565b611c0f565b905082815260208101848484011115611c9957611c98611b99565b5b611ca4848285611c5b565b509392505050565b600082601f830112611cc157611cc0611b94565b5b8135611cd1848260208601611c6a565b91505092915050565b60008060408385031215611cf157611cf0611b54565b5b6000611cff85828601611b7f565b925050602083013567ffffffffffffffff811115611d2057611d1f611b59565b5b611d2c85828601611cac565b9150509250929050565b600060208284031215611d4c57611d4b611b54565b5b6000611d5a84828501611b7f565b91505092915050565b611d6c81611b5e565b82525050565b6000602082019050611d876000830184611d63565b92915050565b60008115159050919050565b611da281611d8d565b82525050565b6000602082019050611dbd6000830184611d99565b92915050565b600073ffffffffffffffffffffffffffffffffffffffff82169050919050565b6000611dee82611dc3565b9050919050565b611dfe81611de3565b82525050565b6000606082019050611e196000830186611df5565b611e266020830185611d99565b611e336040830184611d63565b949350505050565b600081519050919050565b600082825260208201905092915050565b60005b83811015611e75578082015181840152602081019050611e5a565b83811115611e84576000848401525b50505050565b6000611e9582611e3b565b611e9f8185611e46565b9350611eaf818560208601611e57565b611eb881611b9e565b840191505092915050565b6000604082019050611ed86000830185611d63565b8181036020830152611eea8184611e8a565b90509392505050565b60006080820190508181036000830152611f0d8187611e8a565b90508181036020830152611f218186611e8a565b90508181036040830152611f358185611e8a565b9050611f446060830184611d63565b95945050505050565b611f5681611de3565b8114611f6157600080fd5b50565b600081359050611f7381611f4d565b92915050565b60008060408385031215611f9057611f8f611b54565b5b6000611f9e85828601611b7f565b9250506020611faf85828601611f64565b9150509250929050565b6000602082019050611fce6000830184611df5565b92915050565b60008060008060808587031215611fee57611fed611b54565b5b6000611ffc87828801611f64565b945050602085013567ffffffffffffffff81111561201d5761201c611b59565b5b61202987828801611cac565b935050604085013567ffffffffffffffff81111561204a57612049611b59565b5b61205687828801611cac565b925050606085013567ffffffffffffffff81111561207757612076611b59565b5b61208387828801611cac565b91505092959194509250565b600060208201905081810360008301526120a98184611e8a565b905092915050565b6000602082840312156120c7576120c6611b54565b5b60006120d584828501611f64565b91505092915050565b7f4e487b7100000000000000000000000000000000000000000000000000000000600052603260045260246000fd5b7f747820646f6573206e6f74206578697374000000000000000000000000000000600082015250565b6000612143601183611e46565b915061214e8261210d565b602082019050919050565b6000602082019050818103600083015261217281612136565b9050919050565b7f747820616c726561647920657865637574656400000000000000000000000000600082015250565b60006121af601383611e46565b91506121ba82612179565b602082019050919050565b600060208201905081810360008301526121de816121a2565b9050919050565b7f747820616c726561647920636f6e6669726d6564000000000000000000000000600082015250565b600061221b601483611e46565b9150612226826121e5565b602082019050919050565b6000602082019050818103600083015261224a8161220e565b9050919050565b7f4e6f7420616363657373207065726d697373696f6e2e00000000000000000000600082015250565b6000612287601683611e46565b915061229282612251565b602082019050919050565b600060208201905081810360008301526122b68161227a565b9050919050565b7f4e487b7100000000000000000000000000000000000000000000000000000000600052601160045260246000fd5b60006122f782611b5e565b915061230283611b5e565b9250827fffffffffffffffffffffffffffffffffffffffffffffffffffffffffffffffff03821115612337576123366122bd565b5b828201905092915050565b7f4e487b7100000000000000000000000000000000000000000000000000000000600052602260045260246000fd5b6000600282049050600182168061238957607f821691505b6020821081141561239d5761239c612342565b5b50919050565b7f63616e6e6f742065786563757465207478000000000000000000000000000000600082015250565b60006123d9601183611e46565b91506123e4826123a3565b602082019050919050565b60006020820190508181036000830152612408816123cc565b9050919050565b7f4f776e61626c653a2063616c6c6572206973206e6f7420746865206f776e6572600082015250565b6000612445602083611e46565b91506124508261240f565b602082019050919050565b6000602082019050818103600083015261247481612438565b9050919050565b7f496e76616c69642076616363696e6520747970652e0000000000000000000000600082015250565b60006124b1601583611e46565b91506124bc8261247b565b602082019050919050565b600060208201905081810360008301526124e0816124a4565b9050919050565b60006124f282611b5e565b91507fffffffffffffffffffffffffffffffffffffffffffffffffffffffffffffffff821415612525576125246122bd565b5b600182019050919050565b600061253b82611b5e565b9150600082141561254f5761254e6122bd565b5b600182039050919050565b7f4f776e61626c653a206e6577206f776e657220697320746865207a65726f206160008201527f6464726573730000000000000000000000000000000000000000000000000000602082015250565b60006125b6602683611e46565b91506125c18261255a565b604082019050919050565b600060208201905081810360008301526125e5816125a9565b9050919050565b60006125f782611b5e565b915061260283611b5e565b925082821015612615576126146122bd565b5b828203905092915050565b600081905092915050565b600061263682611e3b565b6126408185612620565b9350612650818560208601611e57565b80840191505092915050565b6000612668828461262b565b91508190509291505056fea264697066735822122090f823f636aaaf6b44acb003df014f189711ba6f810f4d2217d6fc1b5f6de41964736f6c634300080a0033",
  "immutableReferences": {},
  "source": "// SPDX-License-Identifier: GPL-3.0\npragma solidity >=0.7.0 <0.9.0;\n\nimport \"../node_modules/@openzeppelin/contracts/access/Ownable.sol\";\n\ncontract VaccinePassport is Ownable {\n    struct Users {\n        uint256 numVaccinations;\n        mapping(uint256 => VaccineRecordDetail) vaccineRecordDetail;\n        // mapping(uint=>VaccineRecordAccess) vaccineRecordAccess;\n    }\n\n    struct VaccineRecordDetail {\n        string userName;\n        string vaccineType;\n        string location;\n        uint256 timestamp;\n    }\n\n    struct VaccineRecordAccess {\n        address accessAddress;\n        bool executed;\n        uint256 numConfirmations;\n    }\n\n    mapping(address => Users) private users;\n\n    function isValidVaccine(string memory _vaccineType)\n        private\n        pure\n        returns (bool)\n    {\n        string[2] memory vaccineList = [\"AAA\", \"BBB\"];\n        for (uint256 i; i < vaccineList.length; i++) {\n            if (\n                keccak256(abi.encodePacked(_vaccineType)) ==\n                keccak256(abi.encodePacked(vaccineList[i]))\n            ) {\n                return true;\n            }\n        }\n        return false;\n    }\n\n    function addVaccineRecord(\n        address _userAddress,\n        string memory _userName,\n        string memory _vaccineType,\n        string memory _location\n    ) public onlyOwner {\n        require(isValidVaccine(_vaccineType), \"Invalid vaccine type.\");\n        Users storage user = users[_userAddress];\n        uint256 numVaccinations = user.numVaccinations;\n        user.vaccineRecordDetail[numVaccinations].userName = _userName;\n        user.vaccineRecordDetail[numVaccinations].vaccineType = _vaccineType;\n        user.vaccineRecordDetail[numVaccinations].location = _location;\n        user.numVaccinations++;\n    }\n\n    VaccineRecordAccess[] public vaccineRecordAccessList;\n\n    mapping(uint256 => mapping(address => bool)) public isConfirmed;\n\n    modifier isAccessAddress(uint256 _txIndex) {\n        require(\n            msg.sender == vaccineRecordAccessList[_txIndex].accessAddress ||\n                msg.sender == Ownable.owner(),\n            \"Not access permission.\"\n        );\n        _;\n    }\n\n    modifier txExists(uint256 _txIndex) {\n        require(_txIndex < vaccineRecordAccessList.length, \"tx does not exist\");\n        _;\n    }\n\n    modifier notExecuted(uint256 _txIndex) {\n        require(\n            !vaccineRecordAccessList[_txIndex].executed,\n            \"tx already executed\"\n        );\n        _;\n    }\n\n    modifier notConfirmed(uint256 _txIndex) {\n        require(!isConfirmed[_txIndex][msg.sender], \"tx already confirmed\");\n        _;\n    }\n\n    // create request to read to record\n    function createReadVaccineRecord() public returns (uint256 _txIndex) {\n        vaccineRecordAccessList.push(\n            VaccineRecordAccess({\n                accessAddress: msg.sender,\n                executed: false,\n                numConfirmations: 0\n            })\n        );\n        return vaccineRecordAccessList.length - 1;\n    }\n\n    // confirm to read record\n    function confirmReadVaccineRecord(uint256 _txIndex)\n        public\n        txExists(_txIndex)\n        notExecuted(_txIndex)\n        notConfirmed(_txIndex)\n        isAccessAddress(_txIndex)\n    {\n        VaccineRecordAccess\n            storage vaccineRecordAccess = vaccineRecordAccessList[_txIndex];\n        isConfirmed[_txIndex][msg.sender] = true;\n        vaccineRecordAccess.numConfirmations += 1;\n    }\n\n    function getConfirmNumber(uint256 _txIndex) public view returns (uint256) {\n        return vaccineRecordAccessList[_txIndex].numConfirmations;\n    }\n\n    event VaccineRecordEvent(\n        address indexed _userAddress,\n        string _userName,\n        string _vaccineType,\n        string _location,\n        uint256 _timestamp\n    );\n\n    // read record\n    function executeReadVaccineRecord(uint256 _txIndex)\n        public\n        txExists(_txIndex)\n        notExecuted(_txIndex)\n        returns (\n            string memory _userName,\n            string memory _vaccineType,\n            string memory _location,\n            uint256 _timestamp\n        )\n    {\n        VaccineRecordAccess\n            storage vaccineRecordAccess = vaccineRecordAccessList[_txIndex];\n        require(vaccineRecordAccess.numConfirmations == 2, \"cannot execute tx\");\n        vaccineRecordAccess.executed = true;\n        _userName = users[vaccineRecordAccess.accessAddress]\n            .vaccineRecordDetail[_txIndex]\n            .userName;\n        _vaccineType = users[vaccineRecordAccess.accessAddress]\n            .vaccineRecordDetail[_txIndex]\n            .vaccineType;\n        _location = users[vaccineRecordAccess.accessAddress]\n            .vaccineRecordDetail[_txIndex]\n            .location;\n        _timestamp = users[vaccineRecordAccess.accessAddress]\n            .vaccineRecordDetail[_txIndex]\n            .timestamp;\n        emit VaccineRecordEvent(\n            vaccineRecordAccess.accessAddress,\n            _userName,\n            _vaccineType,\n            _location,\n            _timestamp\n        );\n        return (_userName, _vaccineType, _location, _timestamp);\n        // VaccineRecordDetail memory vaccineRecordDetail = users[vaccineRecordAccess.accessAddress].vaccineRecordDetail[0];\n        // return vaccineRecordDetail;\n    }\n\n    function getExecuteStatus(uint256 _txIndex) public view returns (bool) {\n        return vaccineRecordAccessList[_txIndex].executed;\n    }\n\n    // revoke Confrim\n    function revokeReadVaccineRecord(uint256 _txIndex)\n        public\n        txExists(_txIndex)\n        notExecuted(_txIndex)\n        isAccessAddress(_txIndex)\n    {\n        VaccineRecordAccess\n            memory vaccineRecordAccess = vaccineRecordAccessList[_txIndex];\n        isConfirmed[_txIndex][msg.sender] = false;\n        vaccineRecordAccess.numConfirmations--;\n    }\n\n    // get vaccineReadRecord length\n    function getVaccineReadRecordLength() public view returns (uint256) {\n        return vaccineRecordAccessList.length;\n    }\n\n    //greeting\n    function greeting() public pure returns (string memory) {\n        return \"Hello, world!\";\n    }\n\n    struct test {\n        uint256 num;\n        string name;\n    }\n    test[] public testList;\n\n    event TestEvent(uint256 indexed _num, string _name);\n\n    function addTest(uint256 num, string memory name) public {\n        testList.push(test({num: num, name: name}));\n        emit TestEvent(num, name);\n    }\n\n    // get vaccineReadRecord length\n    function getVaccineRecord(uint256 _txIndex, address _userAddress)\n        public\n        view\n        returns (\n            string memory _userName,\n            string memory _vaccineType,\n            string memory _location,\n            uint256 _timestamp\n        )\n    {\n        _userName = users[_userAddress].vaccineRecordDetail[_txIndex].userName;\n        _vaccineType = users[_userAddress]\n            .vaccineRecordDetail[_txIndex]\n            .vaccineType;\n        _location = users[_userAddress].vaccineRecordDetail[_txIndex].location;\n        _timestamp = users[_userAddress]\n            .vaccineRecordDetail[_txIndex]\n            .timestamp;\n        return (_userName, _vaccineType, _location, _timestamp);\n    }\n}\n",
  "sourcePath": "/Users/kuma/Desktop/Repo/BC/fyp/solidity/VaccinePassport/contracts/VaccinePassport.sol",
  "compiler": {
    "name": "solc",
    "version": "0.8.10+commit.fc410830.Emscripten.clang"
  },
  "schemaVersion": "3.4.7",
  "updatedAt": "2022-07-13T16:18:34.895Z",
  "networkType": "ethereum",
  "devdoc": {
    "kind": "dev",
    "methods": {
      "owner()": {
        "details": "Returns the address of the current owner."
      },
      "renounceOwnership()": {
        "details": "Leaves the contract without owner. It will not be possible to call `onlyOwner` functions anymore. Can only be called by the current owner. NOTE: Renouncing ownership will leave the contract without an owner, thereby removing any functionality that is only available to the owner."
      },
      "transferOwnership(address)": {
        "details": "Transfers ownership of the contract to a new account (`newOwner`). Can only be called by the current owner."
      }
    },
    "version": 1
  },
  "userdoc": {
    "kind": "user",
    "methods": {},
    "version": 1
  }
}