{
  "contractName": "VaccinePassport",
  "abi": [
    {
      "anonymous": false,
      "inputs": [
        {
          "indexed": true,
          "internalType": "address",
          "name": "previousOwner",
          "type": "address"
        },
        {
          "indexed": true,
          "internalType": "address",
          "name": "newOwner",
          "type": "address"
        }
      ],
      "name": "OwnershipTransferred",
      "type": "event"
    },
    {
      "inputs": [
        {
          "internalType": "uint256",
          "name": "",
          "type": "uint256"
        },
        {
          "internalType": "address",
          "name": "",
          "type": "address"
        }
      ],
      "name": "isConfirmed",
      "outputs": [
        {
          "internalType": "bool",
          "name": "",
          "type": "bool"
        }
      ],
      "stateMutability": "view",
      "type": "function",
      "constant": true
    },
    {
      "inputs": [],
      "name": "owner",
      "outputs": [
        {
          "internalType": "address",
          "name": "",
          "type": "address"
        }
      ],
      "stateMutability": "view",
      "type": "function",
      "constant": true
    },
    {
      "inputs": [],
      "name": "renounceOwnership",
      "outputs": [],
      "stateMutability": "nonpayable",
      "type": "function"
    },
    {
      "inputs": [
        {
          "internalType": "address",
          "name": "newOwner",
          "type": "address"
        }
      ],
      "name": "transferOwnership",
      "outputs": [],
      "stateMutability": "nonpayable",
      "type": "function"
    },
    {
      "inputs": [
        {
          "internalType": "uint256",
          "name": "",
          "type": "uint256"
        }
      ],
      "name": "vaccineRecordAccessList",
      "outputs": [
        {
          "internalType": "address",
          "name": "accessAddress",
          "type": "address"
        },
        {
          "internalType": "bool",
          "name": "executed",
          "type": "bool"
        },
        {
          "internalType": "uint256",
          "name": "numConfirmations",
          "type": "uint256"
        }
      ],
      "stateMutability": "view",
      "type": "function",
      "constant": true
    },
    {
      "inputs": [
        {
          "internalType": "address",
          "name": "_userAddress",
          "type": "address"
        },
        {
          "internalType": "string",
          "name": "_userName",
          "type": "string"
        },
        {
          "internalType": "string",
          "name": "_vaccineType",
          "type": "string"
        },
        {
          "internalType": "string",
          "name": "_location",
          "type": "string"
        }
      ],
      "name": "addVaccineRecord",
      "outputs": [],
      "stateMutability": "nonpayable",
      "type": "function"
    },
    {
      "inputs": [],
      "name": "createReadVaccineRecord",
      "outputs": [
        {
          "internalType": "uint256",
          "name": "_txIndex",
          "type": "uint256"
        }
      ],
      "stateMutability": "nonpayable",
      "type": "function"
    },
    {
      "inputs": [
        {
          "internalType": "uint256",
          "name": "_txIndex",
          "type": "uint256"
        }
      ],
      "name": "confirmReadVaccineRecord",
      "outputs": [],
      "stateMutability": "nonpayable",
      "type": "function"
    },
    {
      "inputs": [
        {
          "internalType": "uint256",
          "name": "_txIndex",
          "type": "uint256"
        }
      ],
      "name": "getConfirmNumber",
      "outputs": [
        {
          "internalType": "uint256",
          "name": "",
          "type": "uint256"
        }
      ],
      "stateMutability": "view",
      "type": "function",
      "constant": true
    },
    {
      "inputs": [
        {
          "internalType": "uint256",
          "name": "_txIndex",
          "type": "uint256"
        }
      ],
      "name": "executeReadVaccineRecord",
      "outputs": [
        {
          "internalType": "string",
          "name": "_userName",
          "type": "string"
        },
        {
          "internalType": "string",
          "name": "_vaccineType",
          "type": "string"
        },
        {
          "internalType": "string",
          "name": "_location",
          "type": "string"
        },
        {
          "internalType": "uint256",
          "name": "_timestamp",
          "type": "uint256"
        }
      ],
      "stateMutability": "nonpayable",
      "type": "function"
    },
    {
      "inputs": [
        {
          "internalType": "uint256",
          "name": "_txIndex",
          "type": "uint256"
        }
      ],
      "name": "getExecuteStatus",
      "outputs": [
        {
          "internalType": "bool",
          "name": "",
          "type": "bool"
        }
      ],
      "stateMutability": "view",
      "type": "function",
      "constant": true
    },
    {
      "inputs": [
        {
          "internalType": "uint256",
          "name": "_txIndex",
          "type": "uint256"
        }
      ],
      "name": "revokeReadVaccineRecord",
      "outputs": [],
      "stateMutability": "nonpayable",
      "type": "function"
    }
  ],
  "bytecode": "0x608060405234801561001057600080fd5b5061002d61002261003260201b60201c565b61003a60201b60201c565b6100fe565b600033905090565b60008060009054906101000a900473ffffffffffffffffffffffffffffffffffffffff169050816000806101000a81548173ffffffffffffffffffffffffffffffffffffffff021916908373ffffffffffffffffffffffffffffffffffffffff1602179055508173ffffffffffffffffffffffffffffffffffffffff168173ffffffffffffffffffffffffffffffffffffffff167f8be0079c531659141344cd1fd0a4f28419497f9722a3daafe3b4186f6b6457e060405160405180910390a35050565b611fad8061010d6000396000f3fe608060405234801561001057600080fd5b50600436106100b45760003560e01c806380f59a651161007157806380f59a65146101a45780638da5cb5b146101d45780639e15c7ba146101f2578063edf9dbad1461020e578063f2fde38b1461022a578063f44a9a2114610246576100b4565b80631747047c146100b957806319953df8146100e95780632ab800f2146101195780633a2f4d851461014b57806361b0e72414610167578063715018a61461019a575b600080fd5b6100d360048036038101906100ce9190611546565b610264565b6040516100e09190611582565b60405180910390f35b61010360048036038101906100fe9190611546565b610293565b60405161011091906115b8565b60405180910390f35b610133600480360381019061012e9190611546565b6102cf565b60405161014293929190611614565b60405180910390f35b61016560048036038101906101609190611546565b610336565b005b610181600480360381019061017c9190611546565b610635565b60405161019194939291906116e4565b60405180910390f35b6101a2610b18565b005b6101be60048036038101906101b9919061176a565b610ba0565b6040516101cb91906115b8565b60405180910390f35b6101dc610bcf565b6040516101e991906117aa565b60405180910390f35b61020c600480360381019061020791906118fa565b610bf8565b005b61022860048036038101906102239190611546565b610da5565b005b610244600480360381019061023f91906119b5565b611084565b005b61024e61117c565b60405161025b9190611582565b60405180910390f35b60006002828154811061027a576102796119e2565b5b9060005260206000209060020201600101549050919050565b6000600282815481106102a9576102a86119e2565b5b906000526020600020906002020160000160149054906101000a900460ff169050919050565b600281815481106102df57600080fd5b90600052602060002090600202016000915090508060000160009054906101000a900473ffffffffffffffffffffffffffffffffffffffff16908060000160149054906101000a900460ff16908060010154905083565b80600280549050811061037e576040517f08c379a000000000000000000000000000000000000000000000000000000000815260040161037590611a5d565b60405180910390fd5b8160028181548110610393576103926119e2565b5b906000526020600020906002020160000160149054906101000a900460ff16156103f2576040517f08c379a00000000000000000000000000000000000000000000000000000000081526004016103e990611ac9565b60405180910390fd5b826003600082815260200190815260200160002060003373ffffffffffffffffffffffffffffffffffffffff1673ffffffffffffffffffffffffffffffffffffffff16815260200190815260200160002060009054906101000a900460ff1615610491576040517f08c379a000000000000000000000000000000000000000000000000000000000815260040161048890611b35565b60405180910390fd5b83600281815481106104a6576104a56119e2565b5b906000526020600020906002020160000160009054906101000a900473ffffffffffffffffffffffffffffffffffffffff1673ffffffffffffffffffffffffffffffffffffffff163373ffffffffffffffffffffffffffffffffffffffff1614806105435750610514610bcf565b73ffffffffffffffffffffffffffffffffffffffff163373ffffffffffffffffffffffffffffffffffffffff16145b610582576040517f08c379a000000000000000000000000000000000000000000000000000000000815260040161057990611ba1565b60405180910390fd5b600060028681548110610598576105976119e2565b5b9060005260206000209060020201905060016003600088815260200190815260200160002060003373ffffffffffffffffffffffffffffffffffffffff1673ffffffffffffffffffffffffffffffffffffffff16815260200190815260200160002060006101000a81548160ff02191690831515021790555060018160010160008282546106269190611bf0565b92505081905550505050505050565b60608060606000846002805490508110610684576040517f08c379a000000000000000000000000000000000000000000000000000000000815260040161067b90611a5d565b60405180910390fd5b8560028181548110610699576106986119e2565b5b906000526020600020906002020160000160149054906101000a900460ff16156106f8576040517f08c379a00000000000000000000000000000000000000000000000000000000081526004016106ef90611ac9565b60405180910390fd5b60006002888154811061070e5761070d6119e2565b5b906000526020600020906002020190506002816001015414610765576040517f08c379a000000000000000000000000000000000000000000000000000000000815260040161075c90611c92565b60405180910390fd5b60018160000160146101000a81548160ff021916908315150217905550600160008260000160009054906101000a900473ffffffffffffffffffffffffffffffffffffffff1673ffffffffffffffffffffffffffffffffffffffff1673ffffffffffffffffffffffffffffffffffffffff1681526020019081526020016000206001016000898152602001908152602001600020600001805461080790611ce1565b80601f016020809104026020016040519081016040528092919081815260200182805461083390611ce1565b80156108805780601f1061085557610100808354040283529160200191610880565b820191906000526020600020905b81548152906001019060200180831161086357829003601f168201915b50505050509650600160008260000160009054906101000a900473ffffffffffffffffffffffffffffffffffffffff1673ffffffffffffffffffffffffffffffffffffffff1673ffffffffffffffffffffffffffffffffffffffff1681526020019081526020016000206001016000898152602001908152602001600020600101805461090c90611ce1565b80601f016020809104026020016040519081016040528092919081815260200182805461093890611ce1565b80156109855780601f1061095a57610100808354040283529160200191610985565b820191906000526020600020905b81548152906001019060200180831161096857829003601f168201915b50505050509550600160008260000160009054906101000a900473ffffffffffffffffffffffffffffffffffffffff1673ffffffffffffffffffffffffffffffffffffffff1673ffffffffffffffffffffffffffffffffffffffff16815260200190815260200160002060010160008981526020019081526020016000206002018054610a1190611ce1565b80601f0160208091040260200160405190810160405280929190818152602001828054610a3d90611ce1565b8015610a8a5780601f10610a5f57610100808354040283529160200191610a8a565b820191906000526020600020905b815481529060010190602001808311610a6d57829003601f168201915b50505050509450600160008260000160009054906101000a900473ffffffffffffffffffffffffffffffffffffffff1673ffffffffffffffffffffffffffffffffffffffff1673ffffffffffffffffffffffffffffffffffffffff16815260200190815260200160002060010160008981526020019081526020016000206003015493505050509193509193565b610b20611268565b73ffffffffffffffffffffffffffffffffffffffff16610b3e610bcf565b73ffffffffffffffffffffffffffffffffffffffff1614610b94576040517f08c379a0000000000000000000000000000000000000000000000000000000008152600401610b8b90611d5f565b60405180910390fd5b610b9e6000611270565b565b60036020528160005260406000206020528060005260406000206000915091509054906101000a900460ff1681565b60008060009054906101000a900473ffffffffffffffffffffffffffffffffffffffff16905090565b610c00611268565b73ffffffffffffffffffffffffffffffffffffffff16610c1e610bcf565b73ffffffffffffffffffffffffffffffffffffffff1614610c74576040517f08c379a0000000000000000000000000000000000000000000000000000000008152600401610c6b90611d5f565b60405180910390fd5b610c7d82611334565b610cbc576040517f08c379a0000000000000000000000000000000000000000000000000000000008152600401610cb390611dcb565b60405180910390fd5b6000600160008673ffffffffffffffffffffffffffffffffffffffff1673ffffffffffffffffffffffffffffffffffffffff1681526020019081526020016000209050600081600001549050848260010160008381526020019081526020016000206000019080519060200190610d34929190611459565b50838260010160008381526020019081526020016000206001019080519060200190610d61929190611459565b50828260010160008381526020019081526020016000206002019080519060200190610d8e929190611459565b508080610d9a90611deb565b915050505050505050565b806002805490508110610ded576040517f08c379a0000000000000000000000000000000000000000000000000000000008152600401610de490611a5d565b60405180910390fd5b8160028181548110610e0257610e016119e2565b5b906000526020600020906002020160000160149054906101000a900460ff1615610e61576040517f08c379a0000000000000000000000000000000000000000000000000000000008152600401610e5890611ac9565b60405180910390fd5b8260028181548110610e7657610e756119e2565b5b906000526020600020906002020160000160009054906101000a900473ffffffffffffffffffffffffffffffffffffffff1673ffffffffffffffffffffffffffffffffffffffff163373ffffffffffffffffffffffffffffffffffffffff161480610f135750610ee4610bcf565b73ffffffffffffffffffffffffffffffffffffffff163373ffffffffffffffffffffffffffffffffffffffff16145b610f52576040517f08c379a0000000000000000000000000000000000000000000000000000000008152600401610f4990611ba1565b60405180910390fd5b600060028581548110610f6857610f676119e2565b5b90600052602060002090600202016040518060600160405290816000820160009054906101000a900473ffffffffffffffffffffffffffffffffffffffff1673ffffffffffffffffffffffffffffffffffffffff1673ffffffffffffffffffffffffffffffffffffffff1681526020016000820160149054906101000a900460ff16151515158152602001600182015481525050905060006003600087815260200190815260200160002060003373ffffffffffffffffffffffffffffffffffffffff1673ffffffffffffffffffffffffffffffffffffffff16815260200190815260200160002060006101000a81548160ff02191690831515021790555080604001805180919061107990611e34565b815250505050505050565b61108c611268565b73ffffffffffffffffffffffffffffffffffffffff166110aa610bcf565b73ffffffffffffffffffffffffffffffffffffffff1614611100576040517f08c379a00000000000000000000000000000000000000000000000000000000081526004016110f790611d5f565b60405180910390fd5b600073ffffffffffffffffffffffffffffffffffffffff168173ffffffffffffffffffffffffffffffffffffffff161415611170576040517f08c379a000000000000000000000000000000000000000000000000000000000815260040161116790611ed0565b60405180910390fd5b61117981611270565b50565b6000600260405180606001604052803373ffffffffffffffffffffffffffffffffffffffff1681526020016000151581526020016000815250908060018154018082558091505060019003906000526020600020906002020160009091909190915060008201518160000160006101000a81548173ffffffffffffffffffffffffffffffffffffffff021916908373ffffffffffffffffffffffffffffffffffffffff16021790555060208201518160000160146101000a81548160ff02191690831515021790555060408201518160010155505060016002805490506112639190611ef0565b905090565b600033905090565b60008060009054906101000a900473ffffffffffffffffffffffffffffffffffffffff169050816000806101000a81548173ffffffffffffffffffffffffffffffffffffffff021916908373ffffffffffffffffffffffffffffffffffffffff1602179055508173ffffffffffffffffffffffffffffffffffffffff168173ffffffffffffffffffffffffffffffffffffffff167f8be0079c531659141344cd1fd0a4f28419497f9722a3daafe3b4186f6b6457e060405160405180910390a35050565b60008060405180604001604052806040518060400160405280600381526020017f414141000000000000000000000000000000000000000000000000000000000081525081526020016040518060400160405280600381526020017f4242420000000000000000000000000000000000000000000000000000000000815250815250905060005b600281101561144d578181600281106113d7576113d66119e2565b5b60200201516040516020016113ec9190611f60565b60405160208183030381529060405280519060200120846040516020016114139190611f60565b60405160208183030381529060405280519060200120141561143a57600192505050611454565b808061144590611deb565b9150506113bb565b5060009150505b919050565b82805461146590611ce1565b90600052602060002090601f01602090048101928261148757600085556114ce565b82601f106114a057805160ff19168380011785556114ce565b828001600101855582156114ce579182015b828111156114cd5782518255916020019190600101906114b2565b5b5090506114db91906114df565b5090565b5b808211156114f85760008160009055506001016114e0565b5090565b6000604051905090565b600080fd5b600080fd5b6000819050919050565b61152381611510565b811461152e57600080fd5b50565b6000813590506115408161151a565b92915050565b60006020828403121561155c5761155b611506565b5b600061156a84828501611531565b91505092915050565b61157c81611510565b82525050565b60006020820190506115976000830184611573565b92915050565b60008115159050919050565b6115b28161159d565b82525050565b60006020820190506115cd60008301846115a9565b92915050565b600073ffffffffffffffffffffffffffffffffffffffff82169050919050565b60006115fe826115d3565b9050919050565b61160e816115f3565b82525050565b60006060820190506116296000830186611605565b61163660208301856115a9565b6116436040830184611573565b949350505050565b600081519050919050565b600082825260208201905092915050565b60005b8381101561168557808201518184015260208101905061166a565b83811115611694576000848401525b50505050565b6000601f19601f8301169050919050565b60006116b68261164b565b6116c08185611656565b93506116d0818560208601611667565b6116d98161169a565b840191505092915050565b600060808201905081810360008301526116fe81876116ab565b9050818103602083015261171281866116ab565b9050818103604083015261172681856116ab565b90506117356060830184611573565b95945050505050565b611747816115f3565b811461175257600080fd5b50565b6000813590506117648161173e565b92915050565b6000806040838503121561178157611780611506565b5b600061178f85828601611531565b92505060206117a085828601611755565b9150509250929050565b60006020820190506117bf6000830184611605565b92915050565b600080fd5b600080fd5b7f4e487b7100000000000000000000000000000000000000000000000000000000600052604160045260246000fd5b6118078261169a565b810181811067ffffffffffffffff82111715611826576118256117cf565b5b80604052505050565b60006118396114fc565b905061184582826117fe565b919050565b600067ffffffffffffffff821115611865576118646117cf565b5b61186e8261169a565b9050602081019050919050565b82818337600083830152505050565b600061189d6118988461184a565b61182f565b9050828152602081018484840111156118b9576118b86117ca565b5b6118c484828561187b565b509392505050565b600082601f8301126118e1576118e06117c5565b5b81356118f184826020860161188a565b91505092915050565b6000806000806080858703121561191457611913611506565b5b600061192287828801611755565b945050602085013567ffffffffffffffff8111156119435761194261150b565b5b61194f878288016118cc565b935050604085013567ffffffffffffffff8111156119705761196f61150b565b5b61197c878288016118cc565b925050606085013567ffffffffffffffff81111561199d5761199c61150b565b5b6119a9878288016118cc565b91505092959194509250565b6000602082840312156119cb576119ca611506565b5b60006119d984828501611755565b91505092915050565b7f4e487b7100000000000000000000000000000000000000000000000000000000600052603260045260246000fd5b7f747820646f6573206e6f74206578697374000000000000000000000000000000600082015250565b6000611a47601183611656565b9150611a5282611a11565b602082019050919050565b60006020820190508181036000830152611a7681611a3a565b9050919050565b7f747820616c726561647920657865637574656400000000000000000000000000600082015250565b6000611ab3601383611656565b9150611abe82611a7d565b602082019050919050565b60006020820190508181036000830152611ae281611aa6565b9050919050565b7f747820616c726561647920636f6e6669726d6564000000000000000000000000600082015250565b6000611b1f601483611656565b9150611b2a82611ae9565b602082019050919050565b60006020820190508181036000830152611b4e81611b12565b9050919050565b7f4e6f7420616363657373207065726d697373696f6e2e00000000000000000000600082015250565b6000611b8b601683611656565b9150611b9682611b55565b602082019050919050565b60006020820190508181036000830152611bba81611b7e565b9050919050565b7f4e487b7100000000000000000000000000000000000000000000000000000000600052601160045260246000fd5b6000611bfb82611510565b9150611c0683611510565b9250827fffffffffffffffffffffffffffffffffffffffffffffffffffffffffffffffff03821115611c3b57611c3a611bc1565b5b828201905092915050565b7f63616e6e6f742065786563757465207478000000000000000000000000000000600082015250565b6000611c7c601183611656565b9150611c8782611c46565b602082019050919050565b60006020820190508181036000830152611cab81611c6f565b9050919050565b7f4e487b7100000000000000000000000000000000000000000000000000000000600052602260045260246000fd5b60006002820490506001821680611cf957607f821691505b60208210811415611d0d57611d0c611cb2565b5b50919050565b7f4f776e61626c653a2063616c6c6572206973206e6f7420746865206f776e6572600082015250565b6000611d49602083611656565b9150611d5482611d13565b602082019050919050565b60006020820190508181036000830152611d7881611d3c565b9050919050565b7f496e76616c69642076616363696e6520747970652e0000000000000000000000600082015250565b6000611db5601583611656565b9150611dc082611d7f565b602082019050919050565b60006020820190508181036000830152611de481611da8565b9050919050565b6000611df682611510565b91507fffffffffffffffffffffffffffffffffffffffffffffffffffffffffffffffff821415611e2957611e28611bc1565b5b600182019050919050565b6000611e3f82611510565b91506000821415611e5357611e52611bc1565b5b600182039050919050565b7f4f776e61626c653a206e6577206f776e657220697320746865207a65726f206160008201527f6464726573730000000000000000000000000000000000000000000000000000602082015250565b6000611eba602683611656565b9150611ec582611e5e565b604082019050919050565b60006020820190508181036000830152611ee981611ead565b9050919050565b6000611efb82611510565b9150611f0683611510565b925082821015611f1957611f18611bc1565b5b828203905092915050565b600081905092915050565b6000611f3a8261164b565b611f448185611f24565b9350611f54818560208601611667565b80840191505092915050565b6000611f6c8284611f2f565b91508190509291505056fea26469706673582212204f5609f7ed82e6822c03d4fb255d49ca453f01430b5d8ec6c349264a6574e0c764736f6c634300080a0033",
  "immutableReferences": {},
  "source": "// SPDX-License-Identifier: GPL-3.0\npragma solidity >=0.7.0 <0.9.0;\n\nimport \"../node_modules/@openzeppelin/contracts/access/Ownable.sol\";\n\ncontract VaccinePassport is Ownable {\n    struct Users {\n        uint256 numVaccinations;\n        mapping(uint256 => VaccineRecordDetail) vaccineRecordDetail;\n        // mapping(uint=>VaccineRecordAccess) vaccineRecordAccess;\n    }\n\n    struct VaccineRecordDetail {\n        string userName;\n        string vaccineType;\n        string location;\n        uint256 timestamp;\n    }\n\n    struct VaccineRecordAccess {\n        address accessAddress;\n        bool executed;\n        uint256 numConfirmations;\n    }\n\n    mapping(address => Users) private users;\n\n    function isValidVaccine(string memory _vaccineType)\n        private\n        pure\n        returns (bool)\n    {\n        string[2] memory vaccineList = [\"AAA\", \"BBB\"];\n        for (uint256 i; i < vaccineList.length; i++) {\n            if (\n                keccak256(abi.encodePacked(_vaccineType)) ==\n                keccak256(abi.encodePacked(vaccineList[i]))\n            ) {\n                return true;\n            }\n        }\n        return false;\n    }\n\n    function addVaccineRecord(\n        address _userAddress,\n        string memory _userName,\n        string memory _vaccineType,\n        string memory _location\n    ) public onlyOwner {\n        require(isValidVaccine(_vaccineType), \"Invalid vaccine type.\");\n        Users storage user = users[_userAddress];\n        uint256 numVaccinations = user.numVaccinations;\n        user.vaccineRecordDetail[numVaccinations].userName = _userName;\n        user.vaccineRecordDetail[numVaccinations].vaccineType = _vaccineType;\n        user.vaccineRecordDetail[numVaccinations].location = _location;\n        numVaccinations++;\n    }\n\n    VaccineRecordAccess[] public vaccineRecordAccessList;\n\n    mapping(uint256 => mapping(address => bool)) public isConfirmed;\n\n    modifier isAccessAddress(uint256 _txIndex) {\n        require(\n            msg.sender == vaccineRecordAccessList[_txIndex].accessAddress ||\n                msg.sender == Ownable.owner(),\n            \"Not access permission.\"\n        );\n        _;\n    }\n\n    modifier txExists(uint256 _txIndex) {\n        require(_txIndex < vaccineRecordAccessList.length, \"tx does not exist\");\n        _;\n    }\n\n    modifier notExecuted(uint256 _txIndex) {\n        require(\n            !vaccineRecordAccessList[_txIndex].executed,\n            \"tx already executed\"\n        );\n        _;\n    }\n\n    modifier notConfirmed(uint256 _txIndex) {\n        require(!isConfirmed[_txIndex][msg.sender], \"tx already confirmed\");\n        _;\n    }\n\n    // create request to read to record\n    function createReadVaccineRecord() public returns (uint256 _txIndex) {\n        vaccineRecordAccessList.push(\n            VaccineRecordAccess({\n                accessAddress: msg.sender,\n                executed: false,\n                numConfirmations: 0\n            })\n        );\n        return vaccineRecordAccessList.length - 1;\n    }\n\n    // confirm to read record\n    function confirmReadVaccineRecord(uint256 _txIndex)\n        public\n        txExists(_txIndex)\n        notExecuted(_txIndex)\n        notConfirmed(_txIndex)\n        isAccessAddress(_txIndex)\n    {\n        VaccineRecordAccess\n            storage vaccineRecordAccess = vaccineRecordAccessList[_txIndex];\n        isConfirmed[_txIndex][msg.sender] = true;\n        vaccineRecordAccess.numConfirmations += 1;\n    }\n\n    function getConfirmNumber(uint256 _txIndex) public view returns (uint256) {\n        return vaccineRecordAccessList[_txIndex].numConfirmations;\n    }\n\n    // read record\n    function executeReadVaccineRecord(uint256 _txIndex)\n        public\n        txExists(_txIndex)\n        notExecuted(_txIndex)\n        returns (\n            string memory _userName,\n            string memory _vaccineType,\n            string memory _location,\n            uint256 _timestamp\n        )\n    {\n        VaccineRecordAccess\n            storage vaccineRecordAccess = vaccineRecordAccessList[_txIndex];\n        require(vaccineRecordAccess.numConfirmations == 2, \"cannot execute tx\");\n        vaccineRecordAccess.executed = true;\n        _userName = users[vaccineRecordAccess.accessAddress]\n            .vaccineRecordDetail[_txIndex]\n            .userName;\n        _vaccineType = users[vaccineRecordAccess.accessAddress]\n            .vaccineRecordDetail[_txIndex]\n            .vaccineType;\n        _location = users[vaccineRecordAccess.accessAddress]\n            .vaccineRecordDetail[_txIndex]\n            .location;\n        _timestamp = users[vaccineRecordAccess.accessAddress]\n            .vaccineRecordDetail[_txIndex]\n            .timestamp;\n        return (_userName, _vaccineType, _location, _timestamp);\n        // VaccineRecordDetail memory vaccineRecordDetail = users[vaccineRecordAccess.accessAddress].vaccineRecordDetail[0];\n        // return vaccineRecordDetail;\n    }\n\n    function getExecuteStatus(uint256 _txIndex) public view returns (bool) {\n        return vaccineRecordAccessList[_txIndex].executed;\n    }\n\n    // revoke Confrim\n    function revokeReadVaccineRecord(uint256 _txIndex)\n        public\n        txExists(_txIndex)\n        notExecuted(_txIndex)\n        isAccessAddress(_txIndex)\n    {\n        VaccineRecordAccess\n            memory vaccineRecordAccess = vaccineRecordAccessList[_txIndex];\n        isConfirmed[_txIndex][msg.sender] = false;\n        vaccineRecordAccess.numConfirmations--;\n    }\n}\n",
  "sourcePath": "/Users/kuma/Desktop/Repo/BC/fyp/solidity/VaccinePassport/contracts/VaccinePassport.sol",
  "compiler": {
    "name": "solc",
    "version": "0.8.10+commit.fc410830.Emscripten.clang"
  },
  "schemaVersion": "3.4.7",
  "updatedAt": "2022-05-27T15:17:43.616Z",
  "networkType": "ethereum",
  "devdoc": {
    "kind": "dev",
    "methods": {
      "owner()": {
        "details": "Returns the address of the current owner."
      },
      "renounceOwnership()": {
        "details": "Leaves the contract without owner. It will not be possible to call `onlyOwner` functions anymore. Can only be called by the current owner. NOTE: Renouncing ownership will leave the contract without an owner, thereby removing any functionality that is only available to the owner."
      },
      "transferOwnership(address)": {
        "details": "Transfers ownership of the contract to a new account (`newOwner`). Can only be called by the current owner."
      }
    },
    "version": 1
  },
  "userdoc": {
    "kind": "user",
    "methods": {},
    "version": 1
  }
}